:020000040800F2
:10000000FCFF0020F5190000D9190000D9190000E3
:10001000D9190000D9190000D9190000D919000018
:10002000D9190000D9190000D9190000D919000008
:10003000D9190000D9190000D9190000D9190000F8
:10004000D9190000D9190000D9190000D9190000E8
:10005000D9190000D9190000D9190000D9190000D8
:10006000D9190000D9190000D9190000D9190000C8
:10007000D9190000D9190000D9190000D9190000B8
:10008000D9190000D9190000D9190000D9190000A8
:10009000D9190000D9190000D9190000D919000098
:1000A000D9190000D9190000D9190000D919000088
:1000B000D9190000D9190000D9190000D919000078
:1000C000D9190000D9190000D9190000D919000068
:1000D000D9190000D9190000D9190000D919000058
:1000E000D9190000D9190000D9190000D919000048
:1000F000D9190000D9190000D9190000D919000038
:10010000D9190000D9190000D9190000D919000027
:10011000D9190000D9190000D9190000D919000017
:10012000D9190000D9190000D9190000D919000007
:10013000D9190000D9190000D9190000D9190000F7
:10014000D9190000D9190000D9190000D9190000E7
:1001500081B000F214010A6800F21801096809046C
:1001600042EA0101084601B07047FFFF81B000F28A
:1001700018010A68C2F3400181F00101C9B2C8B296
:1001800001B0704783B0CDF800E000F0FF031A091A
:10019000104603F00F02134614E0194A02921FE0C2
:1001A000184A02921CE0184A029219E0174A029279
:1001B00016E0174A029213E0164A029210E0164A1D
:1001C00002920DE00028E8D00128E9D00228EAD008
:1001D0000328EBD00428ECD00528EDD00628EED07B
:1001E000012212B29A40ADF8042002980A46BDF8E6
:1001F000041000F057FCDDF800E003B0704700BFCA
:1002000000080140000C01400010014000140140B2
:1002100000180140001C0140002001400148006816
:10022000704700BF2C00002081B0194900EA01018D
:10023000084600220EE0042022E0082020E01020E2
:100240001EE020201CE040201AE0802018E040F250
:10025000001015E00F498842EDD00F498842ECD0DC
:100260000E498842EBD00E498842EAD00D498842B7
:10027000E9D00D498842E8D00C498842E7D01046C1
:100280000B49096841EA000209490A6001B0704758
:1002900000FCFFFF00080140000C0140001001407D
:1002A0000014014000180140001C014000200140E2
:1002B0001810024081B0CDF800E0012252B23E4950
:1002C0000A6000F268010B686FF0006103EA010246
:1002D000144603F00061C90E0B4602F00041B1F173
:1002E000004F02D135490A6801E035490A6804F433
:1002F0007021090C0E464FF6FF7104EA01010D460C
:1003000004F44011B1F5401F0DD16FF0706102EAA5
:1003100001010E462A490A686FF070610A402849B7
:100320000A60324616E004F48011B1F5801F09D14D
:100330004FF00301B140C94302EA010141F070618D
:100340000A4607E0610D090105FA01F1C9430A40B7
:1003500042F070622BB1610D090105FA01F10A4307
:10036000FFE704F00041B1F1004F02D113490A60E8
:1003700001E013490A6040F2000A81464FEA8A010F
:1003800009EB01010968B1F1FF3F10D009F1340117
:100390004FEA8A03C91809680A4609EB030109688C
:1003A00008461146FFF7EEFE0AF1010AE6E7DDF81E
:1003B00000E001B0704700BF000342421C00014052
:1003C0000400014082B0CDF800E0034619460191D7
:1003D000FFF724FF40F2E83100FB01F201990A60C7
:1003E0001F490978C1F30311C8B21E4909180878DA
:1003F000C0B21A1D1968C140116019490988C1F3BA
:10040000022188B2174909180878C0B203F208021D
:10041000191D0968C140116011490988C1F3C22141
:1004200088B2104909180878C0B203F20C02191DED
:100430000968C14011600A490988C1F3813188B255
:10044000094909180978C8B203F2100203F20C0135
:100450000968B1FBF0F11160DDF800E002B070470F
:1004600004100240681D0000901D000081B0CDF80E
:1004700000E04FF000021949884207D118490B6883
:1004800018490A6818490A601C460BE01749884257
:1004900007D117490B6817490A6813490A601C46B7
:1004A00000E0144614490C6003461846FFF75EFE50
:1004B00070B91149096851B12CB905200A4C24685A
:1004C000A047002005E0611E08460446FFE7ECE770
:1004D0000120DDF800E001B0704700BF005400408B
:1004E00000000020340000203000002000580040B0
:1004F00004000020380000200800002081B0CDF862
:1005000000E00B46FFF724FE00EA03029A4240F2A5
:10051000000200D10122D0B2DDF800E001B0704746
:1005200088B0CDF800E00E46554B98420DD101241D
:1005300064B2544B1C60544C544B1C60544C554B8F
:100540001C60554C554B1C600FE0554B98420CD12C
:10055000012464B2534B1C60534C4C4B1C60534CF5
:100560004C4B1C60524C4D4B1C6001960290104647
:10057000FFF7A0FE0298019E031D1B689CB26FF05E
:100580003F0304EA03039DB203AB01901846FFF753
:1005900019FF0198059F059C464BB4FBF3F399B2F4
:1005A0009BB245EA0304A4B2031D1C600024036847
:1005B00064F30003036000223F4B9E4212D8730095
:1005C000B7FBF3F4A4B2042C02D204231C46FFE7C9
:1005D00042EA04039AB200F220044B1C9BB223604F
:1005E00091B23FE0032306FB03F4B7FBF4F31FFAD9
:1005F00083F8192306FB03F5B7FBF5F31FFA83F91C
:1006000008FB04F409FB05F33C1BFB1A9C4205D2D2
:1006100003237343B7FBF3F4A4B206E01923734337
:10062000B7FBF3F4A4B244F4804440F6FF7304EA49
:10063000030313B944F00104FFE744F400439BB201
:100640001A4392B200F2200540F22C1301FB03F48E
:10065000A4B240F2E833B4FBF3F39BB25B1C9BB251
:100660002B6091B200F21C03196000230360012487
:10067000036864F300030360DDF800E008B070472E
:1006800000540040D4034242110E00003C00002000
:10069000FFFFFFFF40000020D50E000044000020B7
:1006A00000580040D8034242F90D0000FFFFFFFF51
:1006B000F90E000040420F00A086010081B00168E1
:1006C000C1F3801001B0704782B0CDF800E0029E07
:1006D0004FF00005564CA04206D1564C2768564CA8
:1006E0002568564C25600AE0554CA04206D1554C71
:1006F0002768554C2568514C256000E02F46534C27
:10070000276000F210054C00A4B22C60B9460746E1
:10071000904635461E464E493846FFF7EFFE88B9EB
:100720004A4C24686CB1B9F1000F06D10420434C47
:100730002468A0474FF6FF7076E0A9F101008146DA
:10074000FFE7E8E70020019729463746019E7C1E17
:10075000A04226D206F2100508EB000424782C6093
:100760003A4CD4F8009082460D463A493046FFF79D
:10077000C5FE88B9354C24686CB1B9F1000F06D1BB
:1007800004202E4C2468A0474FF6FF704CE0A9F1DE
:1007900001008146FFE7E8E70AF101042046294607
:1007A000D5E706F2100508EB000424782C60274CEE
:1007B00027680D4628493046FFF7A0FE70B9234C44
:1007C000246854B137B904201C4C2468A0474FF664
:1007D000FF7029E0781E0746FFE7EBE7012D05D102
:1007E0000125346865F3492434601CE00125346830
:1007F00065F308243460154C2768354617492846A8
:10080000FFF77CFE78B9114C24685CB137B904203D
:100810000A4C2468A0474FF6FF7005E07C1E204676
:100820000746FFE7EAE70020DDF800E002B0704786
:100830000054004000000020340000203000002060
:10084000005800400400002038000020080000206C
:1008500082000700800007008400070001000300F9
:1008600089B0CDF800E0834698B28C46BDF82410DC
:100870000A9E04ACADF80410ADF808002046FFF75E
:10088000A1FDBDF80800BDF80410644CA34512D1C9
:1008900001256DB2624C2560624D634C2560634D4D
:1008A000634C2560634D644C2560644D644C256049
:1008B000079C039456E0634CA34512D101256DB209
:1008C000614C2560614D584C2560614D584C256048
:1008D000604D594C2560604D594C2560069C039431
:1008E00040E05E4CA34512D101256DB25C4C256001
:1008F0005C4D4D4C25605C4D4D4C25605B4D4E4C28
:1009000025605B4D4E4C2560069C03942AE0594CB3
:10091000A34512D101256DB2574C2560574D424C6D
:100920002560574D424C2560564D434C2560564D31
:10093000434C2560069C039414E0544CA34511D10C
:1009400001256DB2524C2560524D374C2560524DF9
:10095000374C2560514D384C2560514D384C256041
:10096000069C0394ADF80410ADF808003046FFF77C
:10097000A1FCBDF80800BDF804100BF1100500241F
:100980002C600BF110052C680C432C600BF10C054E
:1009900000242C6018B140F4806080B2FFE70BF1B6
:1009A0000C052C6804432C600BF10C0601253468FF
:1009B00065F34D3434600BF10C060125346865F3A2
:1009C000C30434600BF10C060125346865F382041E
:1009D00034600BF1140500242C60039D1924654339
:1009E0004FEA8C04B5FBF4F76424B7FBF4F426015A
:1009F000350964246C433C1B240104F23205642451
:100A0000B5FBF4F404F00F0446EA04040BF1080506
:100A1000A4B22C60DDF800E009B070470038014056
:100A200038034242FFFFFFFF48000020290E00006C
:100A30004C000020590E000050000020410E000024
:100A40005400002000440040C4034242FFFFFFFF67
:100A5000890D0000E10D0000C90D000000480040B4
:100A6000C8034242FFFFFFFF8D0F00004D0F000043
:100A700001100000004C0040CC034242FFFFFFFF8A
:100A800019100000CD0F0000A50E0000005000401E
:100A9000D0034242FFFFFFFFBD0E0000710E0000B9
:100AA000350F000081B0CDF800E08CB21546774BD1
:100AB00000EA03031E461846FFF7B6FBB4F1FF0F2A
:100AC0000CD1734B9D4203D14FF033333360D9E0E7
:100AD000422D03D14FF044333360D3E04FF6FF7320
:100AE0009C4214D16A4B9D4207D14FF0333333609F
:100AF000341D4FF033332360C4E0422D07D14FF053
:100B000044333360341D4FF044332360BAE0002196
:100B1000002005F001030BB100211DE005F00203E8
:100B200033B105F4C0730BB1082100E0042113E0D8
:100B300005F0040333B105F020030BB1042100E0FC
:100B4000002109E005F0080333B105F020030BB1E3
:100B50000C2100E00821FFE74E4B05EA03030BB12F
:100B6000032009E005F400730BB1022004E005F452
:100B700080630BB10120FFE705F00C030BB10143CB
:100B8000FFE704F0FF039BB2002B3BD03768002047
:100B90001FFA84F832462E4608282CD24FF0010363
:100BA00003FA00F408EA0403A34222D185004FF0BF
:100BB0000F03AB40DB4307EA030401FA05F344EA01
:100BC00003031D4606F48173B3F5817F05D102F25C
:100BD00014044FF001038340236006F08203822B4C
:100BE00005D102F210044FF00103834023602F4629
:100BF000FFE7401CD0E717601FFA88F00F46314628
:100C0000164602E00F462946A0B2B0F1FF0F39D9CF
:100C1000331DD3F800800022082A30D202F20804E3
:100C20004FF0010303FA04F400EA0403A34224D1C1
:100C300095004FF00F03AB40DB4308EA030807FAC7
:100C400005F348EA030801F48173B3F5817F07D106
:100C500006F2140502F208044FF00103A3402B60D2
:100C600001F08203822B07D106F2100502F208047C
:100C70004FF00103A3402B60FFE7521CCCE7331D6C
:100C8000C3F80080DDF800E001B0704700FCFFFF12
:100C9000140008000008080083B0CDF800E0034607
:100CA0004FF0000026498B4206D126490C682649A0
:100CB0000A6826490A600BE025498B4207D125497D
:100CC000086825490A6821490A60044600E004468C
:100CD00022490C60019402931846FFF7C7FB029B60
:100CE000019C10B94FF6FF7025E00122196862F3EC
:100CF0000821196003F214010A68C2F3402111B1FE
:100D00004FF6FF7017E025461C4615492046FFF7B1
:100D1000F5FB78B91149096859B135B906200B4C72
:100D20002468A0474FF6FF7005E0691E0846054697
:100D3000FFE7EAE70020DDF800E003B0704700BFFE
:100D4000005400400000002034000020300000204B
:100D50000058004004000020380000200800002057
:100D60000100030081B00268C2F3401101B9FAE743
:100D7000011D096888B201B07047FFFF81B00168AA
:100D8000C1F3401001B0704781B0CDF800E00348D6
:100D9000FFF7E8FFDDF800E001B0704700440040D5
:100DA00081B0CDF800E0019D2C4610B408B493B298
:100DB0008AB201460348FFF753FD02B0DDF800E0B8
:100DC00001B070470038014081B0CDF800E0034821
:100DD000FFF774FCDDF800E001B07047004400400C
:100DE00081B0CDF800E00348FFF7C8FFDDF800E070
:100DF00001B070470044004081B0CDF800E00348E6
:100E0000FFF74AFFDDF800E001B0704700580040EE
:100E100081B0CDF800E00348FFF73EFFDDF800E0C9
:100E200001B070470054004081B0CDF800E00348A5
:100E3000FFF798FFDDF800E001B07047003801408F
:100E400081B0CDF800E00348FFF738FCDDF800E0A2
:100E500001B070470038014081B0CDF800E0034890
:100E6000FFF78CFFDDF800E001B07047003801406B
:100E700081B0CDF800E00348FFF780FFDDF800E027
:100E800001B070470050004081B0CDF800E0044A46
:100E900089B2FFF707FEDDF800E001B0704700BF40
:100EA0001400080081B0CDF800E00348FFF706FC0D
:100EB000DDF800E001B07047004C004081B0CDF893
:100EC00000E00348FFF74EFFDDF800E001B0704797
:100ED0000050004081B0CDF800E008B413460A4647
:100EE000C1B20448FFF7F0FB01B0DDF800E001B04B
:100EF000704700BF0054004081B0CDF800E008B456
:100F000013460A46C1B20448FFF7DEFB01B0DDF824
:100F100000E001B0704700BF0058004081B0CDF83C
:100F200000E04FF0420289B2FFF7BCFDDDF800E0BF
:100F300001B0704781B0CDF800E00348FFF7BEFB79
:100F4000DDF800E001B070470050004081B0CDF8FE
:100F500000E00348FFF712FFDDF800E001B0704742
:100F60000048004081B0CDF800E0019D2C4610B44F
:100F700008B493B28AB201460348FFF771FC02B08D
:100F8000DDF800E001B070470048004081B0CDF8C6
:100F900000E00348FFF7E6FEDDF800E001B070472F
:100FA0000048004081B0CDF800E0019D2C4610B40F
:100FB00008B493B28AB201460348FFF751FC02B06D
:100FC000DDF800E001B070470044004081B0CDF88A
:100FD00000E00348FFF7D2FEDDF800E001B0704703
:100FE000004C004081B0CDF800E00A4601460348BD
:100FF000FFF796FADDF800E001B0704700540040BA
:1010000081B0CDF800E00348FFF758FBDDF800E0C1
:1010100001B070470048004081B0CDF800E00348BF
:10102000FFF7A0FEDDF800E001B07047004C004083
:1010300001490860704700BFB08122420149086041
:10104000704700BF9881224201490860704700BF85
:10105000B001224201490860704700BFB0812242BE
:1010600001490860704700BF9481224282B0CDF8E8
:1010700000E040F20004ADF80440064C2468A047AC
:10108000BDF9041041EA000000B2DDF800E002B052
:10109000704700BF1800002082B0CDF800E040F299
:1010A0000004ADF80440054C2468A047BDF9044095
:1010B000044320B2DDF800E002B0704710000020C9
:1010C00001490860704700BF9881214201490860CA
:1010D000704700BF9C81214200F23003191D0A684D
:1010E00005490A6003F218010A6804490A600268A7
:1010F00003490A60704700BF200000202400002040
:1011000028000020026806490A60011D0A68054996
:101110000A6000F208010A6803490A60704700BFCC
:1011200018000020100000201C00002081B0CDF825
:1011300000E0094902B440F2000340F2000240F22C
:101140000001FFF72FFF01B0044A05490A600020A3
:10115000DDF800E001B07047C41B0000FFFFFFFF97
:101160000C00002001490860704700BF9001214237
:1011700001490860704700BFA80122420149086088
:10118000704700BFB481224201490860704700BF28
:101190008801224281B0CDF800E001680846044988
:1011A000FFF720FF0020DDF800E001B0704700BF2E
:1011B000301C000081B0CDF800E0A9E0012905D184
:1011C00040F220016548FFF7A9FE04E040F220014B
:1011D0006248FFF759FEBBE0012905D140F2080142
:1011E0005F48FFF79BFE04E040F208015C48FFF710
:1011F0004BFEADE0012905D144F200015948FFF74B
:101200008DFE04E044F200015648FFF73DFE9FE0EA
:10121000012905D140F200415148FFF77FFE04E06B
:1012200040F200414E48FFF72FFE91E0012905D121
:1012300040F600014A48FFF771FE04E040F6000165
:101240004748FFF721FE83E0012905D141F2000163
:101250004348FFF763FE04E041F200014048FFF716
:1012600013FE75E0012905D141F200013D48FFF769
:1012700055FE04E041F200013A48FFF705FE67E041
:10128000012905D140F600013648FFF747FE04E08A
:1012900040F600013348FFF7F7FD59E0012905D179
:1012A00040F240012F48FFF739FE04E040F24001D0
:1012B0002C48FFF7E9FD4BE0012905D140F2200160
:1012C0002848FFF72BFE04E040F220012548FFF7F5
:1012D000DBFD3DE0012905D140F240012248FFF746
:1012E0001DFE04E040F240011F48FFF7CDFD2FE056
:1012F000012905D140F280011B48FFF70FFE04E0F1
:1013000040F280011848FFF7BFFD21E0012020E0F6
:1013100000283FF453AF01283FF45EAF02283FF4AA
:1013200069AF03283FF474AF04283FF47FAF05286A
:101330003FF48AAF06283FF495AF0728A0D00828CD
:10134000ACD00928B8D00A28C4D00B28D0D0DDE70B
:101350000020DDF800E001B0704700BF0008014048
:101360000010014000140140000C014081B0CDF894
:1013700000E0A9E0012905D140F210016548FFF71E
:10138000CDFD04E040F210016248FFF77DFDBBE0B7
:10139000012905D140F204015F48FFF7BFFD04E0D9
:1013A00040F204015C48FFF76FFDADE0012905D173
:1013B00042F200015948FFF7B1FD04E042F200019A
:1013C0005648FFF761FD9FE0012905D140F2004139
:1013D0005148FFF7A3FD04E040F200414E48FFF7FB
:1013E00053FD91E0012905D140F600014A48FFF77D
:1013F00095FD04E040F600014748FFF745FD83E016
:10140000012905D141F200014348FFF787FD04E0BF
:1014100041F200014048FFF737FD75E0012905D191
:1014200040F201013B48FFF779FD04E040F2010181
:101430003848FFF729FD67E0012905D140F2004156
:101440003648FFF76BFD04E040F200413348FFF7F8
:101450001BFD59E0012905D140F200212F48FFF77B
:101460005DFD04E040F200212C48FFF70DFD4BE04C
:10147000012905D140F200112848FFF74FFD04E093
:1014800040F200112548FFF7FFFC3DE0012905D19E
:1014900040F240012248FFF741FD04E040F24001E4
:1014A0001F48FFF7F1FC2FE0012905D140F2800130
:1014B0001B48FFF733FD04E040F280011848FFF7B6
:1014C000E3FC21E0012020E000283FF453AF012895
:1014D0003FF45EAF02283FF469AF03283FF474AFD6
:1014E00004283FF47FAF05283FF48AAF06283FF475
:1014F00095AF0728A0D00828ACD00928B8D00A2872
:10150000C4D00B28D0D0DDE70020DDF800E001B02A
:10151000704700BF00080140001001400014014066
:10152000000C014081B0CDF800E001680846044994
:10153000FFF758FD0020DDF800E001B0704700BF64
:10154000301C000081B0CDF800E0094902B440F23F
:10155000000340F2000240F20001FFF721FC01B05D
:10156000044A05490A600020DDF800E001B0704738
:101570009C1C0000FFFFFFFF0C00002081B0CDF895
:1015800000E0094902B440F2000340F2000240F2D8
:101590000001FFF707FD01B0044A05490A60002079
:1015A000DDF800E001B07047C41B0000FFFFFFFF43
:1015B0000C00002081B0CDF800E0094902B440F2EF
:1015C000000340F2000240F20001FFF7CBFC01B043
:1015D000044A05490A600020DDF800E001B07047C8
:1015E000581B0000FFFFFFFF0C00002001490860AE
:1015F000704700BFB881224201490860704700BFB0
:10160000A801224201490860704700BFA081224220
:1016100001490860704700BF988121420149086074
:10162000704700BF8C01224201490860704700BF2B
:101630009401214201490860704700BF9C8121420A
:1016400001490860704700BFB001224201490860AB
:10165000704700BFA881224201490860704700BF5F
:101660008001214201490860704700BFA4812242E5
:1016700001490860704700BFAC012242014908607F
:10168000704700BFAC01224281B0CDF800E08B462C
:1016900009E05846FFF77EFD0AE05846FFF742FF93
:1016A00006E0012004E00028F3D00128F5D0F8E797
:1016B000DDF800E001B0704781B0CDF800E05FFADE
:1016C00081F95FFA82FA0FE05FFA8AF15FFA89F036
:1016D000FFF74CFE0DE05FFA8AF15FFA89F0FFF741
:1016E00069FD06E0012004E00028EDD00128F2D0D9
:1016F000F8E7DDF800E001B07047FFFF81B0CDF8FA
:1017000000E00446054B1A700846FFF7FBFC204634
:10171000FFF7E2FCDDF800E001B0704714000020A4
:1017200044F67F77C0F212077F1EFDD100BF00BFD5
:1017300000BF00BF00BF704781B0CDF800E0034C90
:101740002468A047DDF800E001B0704728000020C1
:1017500081B0CDF800E011E00846FFF72BFF16E05E
:101760000846FFF70BFF12E00846FFF7EBFE0EE01E
:101770000846FFF7DBFC0AE0012008E00028EBD078
:101780000128EDD02028EFD03028F1D0F4E7DDF8A3
:1017900000E001B07047FFFF82B0CDF800E001AA81
:1017A000F9211170802804D201A94A1C80211170EE
:1017B00002E001A9491C0870FFF758FC01AA07497B
:1017C00009780123C8B211460222FFF765FCFFF732
:1017D000A7FFDDF800E002B0704700BF1400002052
:1017E00081B0CDF800E0EE20FFF7D6FF45F2FF070D
:1017F000C0F2252700BF00BF7F1EFDD100BF00BF84
:1018000000BFDE20FFF7C8FF45F2FF07C0F2252723
:101810007F1EFDD100BF00BF00BF00BF00BFCF20B3
:10182000FFF7BAFF45F2FF07C0F2252700BF00BF50
:101830007F1EFDD100BF00BF00BFBF20FFF7ACFF80
:1018400045F2FF07C0F225277F1EFDD100BF00BF74
:1018500000BF00BF00BFCF20FFF79EFF45F2FF078C
:10186000C0F2252700BF00BF7F1EFDD100BF00BF13
:1018700000BFDE20FFF790FF45F2FF07C0F22527EB
:101880007F1EFDD100BF00BF00BF00BF00BFDDF85D
:1018900000E001B07047FFFF81B01CF8019B0BF81E
:1018A000019BBBEB0A0FF8D101B0704781B015481E
:1018B000006840F0010113480160134913480160BA
:1018C00010480168124801400E4801600D48016847
:1018D0006FF4802001400B4801600C4801686FF4F0
:1018E000FE00014009480160064801686FF0A05001
:1018F0000140044801604FF000010648016001B05A
:10190000704700BF001002400000FFF004100240CA
:10191000FFFFF6FE2C10024081B0CDF800E000225F
:1019200000210020FFF7C8FE012201210020FFF75F
:10193000C3FE0C4801460020FFF7A6FE42F280518C
:101940002020FFF705FF44F67F77C0F2120700BFA3
:1019500000BF7F1EFDD100BF00BF00BFDDF800E06B
:1019600001B07047941D000081B0CDF800E048221E
:1019700008490948FFF7C2FEFFF7D2FE0120FFF732
:10198000DBFEDE20FFF708FFFFF7CAFEDDF800E010
:1019900001B07047841D0000081D000081B04FF0A9
:1019A00000094FF0000CBDEB0A0F04DCBDEB0B0F80
:1019B00001DBD446EA464BF8049BBBEB0A0FFAD195
:1019C000BCEB0A0F05DDE246D9F800B00BF1040BC1
:1019D000F1E701B07047FFFF81B0FEE701B070474B
:1019E00081B002490248016001B07047401901000E
:1019F0002C00002000F00EF800F00EFAFFF7F0FFC8
:101A000000F0CAF9FFF788FFFFF7AEFFFFF7E8FE27
:101A1000FCE7FEE781B0CDF800E0464A464B474C74
:101A200047494BF68030814206D94648006840F06D
:101A300002014448016011E045F6C050814206D9D8
:101A40004048006840F001013E48016006E03D4822
:101A500001686FF0070001403A480160FFF726FF78
:101A60003948036039480460394802EA00013948BE
:101A7000016002F0010040B119463648006800F0EC
:101A80000200002800D1F8E700E0194602F4803097
:101A900040B10B462F48006800F40030002800D108
:101AA000F8E700E00B4602F0805068B12948006872
:101AB00040F08051274801602648006800F000503F
:101AC000002800D1F8E7FFE702F0806078B12148F4
:101AD000006840F080611F48016011461A461D48A9
:101AE000006800F00060002800D1F8E701E011462E
:101AF0001A4601F0807070B11648006840F080719D
:101B00001448016011461348006800F0007000B9E5
:101B1000F9E70A46FFE70C48006800F00C01900066
:101B200000F00C00814200D0F5E7DDF800E001B0E4
:101B3000704700BF8100010502841D0044060100BA
:101B40004019010000200240041002402C10024005
:101B5000FFFF0F00001002403800000039000000B5
:101B6000FFFFFFFF00000000000000000000000079
:101B70000000000000000000000000000000000065
:101B80000000000000000000000000001808000035
:101B9000180000000000000000000000000000002D
:101BA0000000000000000000000000000000000035
:101BB0000000000000000000000000000000000025
:101BC000300014083500000036000000FFFFFFFF62
:101BD0000000000000000000000000000000000005
:101BE00000000000000000000000000000000000F5
:101BF00000000000000000001808000018000000AD
:101C000000000000000000000000000000000000D4
:101C100000000000000000000000000000000000C4
:101C200000000000000000000000000008000008A4
:101C30001600000017000000FFFFFFFF000000007B
:101C40000000000000000000000000000000000094
:101C50000000000000000000000000000000000084
:101C60000000000028080000280800000000000014
:101C70000000000000000000000000000000000064
:101C80000000000000000000000000000000000054
:101C90000000000000000000020000000900000039
:101CA0000A000000FFFFFFFF00000000000000002E
:101CB0000000000000000000000000000000000024
:101CC0000000000000000000000000000000000014
:101CD00018080000180000000000000000000000CC
:101CE00000000000000000000000000000000000F4
:101CF00000000000000000000000000000000000E4
:101D000000000000040000006511000089110000BF
:101D10007D110000711100007D16000041160000C9
:101D2000591600004D16000065160000051600004B
:101D30001116000035160000FFFFFFFFFFFFFFFF39
:101D4000FFFFFFFFFFFFFFFFFFFFFFFFFFFFFFFFA3
:101D5000FFFFFFFFFFFFFFFFFFFFFFFFFFFFFFFF93
:101D6000FFFFFFFFFFFFFFFF000000000102030471
:101D7000010203040607080900000000000000003B
:101D800000000000110E0000D50E0000FFFFFFFF55
:101D900002040608A086010000B5DFF814B0DFF8E1
:101DA00014A0DFF814C0FFF777FD00BD704700BF37
:101DB000000000200C000020781D0000FFFFFFFF46
:101DC000FFFFFFFFFFFFFFFFFFFFFFFFFFFFFFFF23
:101DD000FFFFFFFFFFFFFFFFFFFFFFFFFFFFFFFF13
:101DE000FFFFFFFFFFFFFFFFFFFFFFFFFFFFFFFF03
:101DF000FFFFFFFFFFFFFFFFFFFFFFFFFFFFFFFFF3
:101E0000FFFFFFFFFFFFFFFFFFFFFFFFFFFFFFFFE2
:101E1000FFFFFFFFFFFFFFFF00B5DFF810B0DFF8A7
:101E200010A0FFF7BBFD00BD704700BF0000002001
:101E300058000020FFFFFFFFFFFFFFFFFFFFFFFF36
:00000001FF
