:10000000FCFF032009200000ED1F0000ED1F000091
:10001000ED1F0000ED1F0000ED1F0000ED1F0000B0
:10002000ED1F0000ED1F0000ED1F0000ED1F0000A0
:10003000ED1F0000ED1F0000ED1F0000ED1F000090
:10004000ED1F0000ED1F0000ED1F0000ED1F000080
:10005000ED1F0000ED1F0000ED1F0000ED1F000070
:10006000ED1F0000ED1F0000ED1F0000ED1F000060
:10007000ED1F0000ED1F0000ED1F0000ED1F000050
:10008000ED1F0000ED1F0000ED1F0000ED1F000040
:10009000ED1F0000ED1F0000ED1F0000ED1F000030
:1000A000ED1F0000ED1F0000ED1F0000ED1F000020
:1000B000ED1F0000ED1F0000ED1F0000ED1F000010
:1000C000ED1F0000ED1F0000ED1F0000ED1F000000
:1000D000ED1F0000ED1F0000ED1F0000ED1F0000F0
:1000E000ED1F0000ED1F0000ED1F0000ED1F0000E0
:1000F000ED1F0000ED1F0000ED1F0000ED1F0000D0
:10010000ED1F0000ED1F0000ED1F0000ED1F0000BF
:10011000ED1F0000ED1F0000ED1F0000ED1F0000AF
:10012000ED1F0000ED1F0000ED1F0000ED1F00009F
:10013000ED1F0000ED1F0000ED1F0000ED1F00008F
:10014000ED1F0000ED1F0000ED1F0000ED1F00007F
:10015000ED1F0000ED1F0000ED1F0000ED1F00006F
:10016000ED1F0000ED1F0000ED1F0000ED1F00005F
:10017000ED1F0000ED1F0000ED1F0000ED1F00004F
:10018000ED1F0000ED1F0000ED1F0000ED1F00003F
:10019000ED1F0000ED1F0000ED1F0000ED1F00002F
:1001A000ED1F0000ED1F0000ED1F0000ED1F00001F
:1001B000ED1F0000ED1F0000ED1F0000ED1F00000F
:1001C000ED1F0000ED1F0000ED1F0000ED1F0000FF
:1001D000ED1F0000ED1F0000ED1F0000ED1F0000EF
:1001E000ED1F0000ED1F0000ED1F0000ED1F0000DF
:1001F000ED1F0000ED1F0000ED1F0000ED1F0000CF
:08020000ED1F0000ED1F0000DE
:1020080000F010F8FFF7D8FF00F0F4FAFFF7EEFF42
:1020180000F0A2FAFFF770FFFFF796FFFFF7F8FE50
:04202800FCE7FEE7EC
:101F840081B04FF000094FF0000CBDEB0A0F04DCE8
:101F9400BDEB0B0F01DBD446EA464BF8049BBBEBCD
:101FA4000A0FFAD1BCEB0A0F05DDE246D9F800B0FE
:0A1FB4000BF1040BF1E701B07047D8
:101F000081B0CDF800E0002200210020FFF7EEFEB6
:101F1000012201210020FFF7E9FE0C4801460020C4
:101F2000FFF7CCFE42F280512020FFF73DFF40F644
:101F3000FE07C0F23D0700BF00BF7F1EFDD100BFFE
:101F400000BF00BFDDF800E001B07047141E0000C4
:101CEC0081B0CDF800E05FFA81FA5FFA82FB0FE079
:101CFC005FFA8BF15FFA8AF0FFF760FD0DE05FFA97
:101D0C008BF15FFA8AF0FFF721FE06E0012004E078
:101D1C000028EDD00128F2D0F8E7DDF800E001B0A2
:021D2C007047FE
:1017C80081B0CDF800E091E0012904D110215A48F8
:1017D800FFF7A4FE03E010215748FFF789FEA5E0B4
:1017E800012904D101215448FFF798FE03E00121A3
:1017F8005148FFF77DFE99E0012904D101214F48A6
:10180800FFF78CFE03E001214C48FFF771FE8DE0E5
:10181800012904D104214A48FFF780FE03E004218E
:101828004748FFF765FE81E0012904D110214448AB
:10183800FFF774FE03E010214148FFF759FE75E0F9
:10184800012904D120213E48FFF768FE03E020214A
:101858003B48FFF74DFE69E0012904D101213948D1
:10186800FFF75CFE03E001213648FFF741FE5DE02B
:10187800012904D110213448FFF750FE03E010215C
:101888003148FFF735FE51E0012904D140212F48A6
:10189800FFF744FE03E040212C48FFF729FE45E00E
:1018A800012904D180212948FFF738FE03E080216F
:1018B8002648FFF71DFE39E0012904D104211F48FD
:1018C800FFF72CFE03E004211C48FFF711FE2DE072
:1018D800012904D108211948FFF720FE03E0082157
:1018E8001648FFF705FE21E0012020E000283FF41C
:1018F8006BAF01283FF474AF02283FF47DAF032893
:101908003FF486AF04283FF48FAF05283FF498AF23
:1019180006283FF4A1AF0728AAD00828B4D0092880
:10192800BED00A28C8D00B28D2D0DDE70020DDF8C9
:1019380000E001B0704700BF00C0054000900540BE
:101948000080054000B0054000D0054000A00540DB
:1015240081B0CDF800E0002440F240031BB240F249
:10153400001212B21A4393B2002210B4FFF720FB38
:0A15440001B0DDF800E001B07047CF
:100B840082B0CDF800E05FFA81F8D5B29FB29DF84B
:100B94000830F54C00EA0404A1462046FFF73EFB6A
:100BA400F24CA54208D109F580666FEA0805EDB25A
:100BB40034682C40346008E0ED4CA54205D109F5B9
:100BC40080652C6844EA08042C6040F2010407EABA
:100BD4000404A4B234B109F5A2652C6844EA0804FB
:100BE4002C6007E009F5A2666FEA0805EDB23468E7
:100BF4002C40346040F2020407EA0404A4B234B185
:100C040009F214552C6844EA08042C6007E009F240
:100C140014566FEA0805EDB234682C40346040F293
:100C2400080407EA0404A4B234B109F20C552C6890
:100C340044EA08042C6007E009F20C566FEA080540
:100C4400EDB234682C40346040F2100407EA040426
:100C5400A4B234B109F5A0652C6844EA08042C60F8
:100C640007E009F5A0666FEA0805EDB234682C4088
:100C7400346040F2200407EA0404A4B234B109F257
:100C840004552C6844EA08042C6007E009F2045671
:100C94006FEA0805EDB234682C40346040F2400439
:100CA40007EA0404A4B234B109F5A1652C6844EA46
:100CB40008042C6007E009F5A1666FEA0805EDB2A7
:100CC40034682C40346041F2000407EA0404A4B2FE
:100CD400012C13D042F2000407EA0404A4B2012C4C
:100CE4000CD044F2000407EA0404A4B2012C05D099
:100CF400DEB24B46B8B25FFA88F53CE0002000262D
:100D0400DAB2BBB207465FFA88F04946082E13D21E
:100D140020FA06F4E4B204F00104E4B24CB1750024
:100D24002DB2032424B2AC4024B247EA04052F4672
:100D3400FFE7761CF6B2E9E701F6C476FD433468B2
:100D44002C40346001F23C56C543EDB234682C406B
:100D5400346001F5A166C543EDB234682C403460BB
:100D640001F20456C543EDB234682C403460C5B278
:100D740098B20B46D6B2002141F2000400EA040402
:100D8400A4B23CB300220F46E9B2082A13D221FAD6
:100D940002F4E4B204F00104E4B24CB155002DB203
:100DA400012424B2AC4024B247EA04052F46FFE7ED
:100DB400521CD2B2E9E703F6C4752C683C432C609C
:100DC40003F5A1652C680C432C603D461F4683B295
:100DD400C8B203E01F4683B2E8B20D4642F20004F3
:100DE40003EA0404A4B26CB30022A8463946082AD4
:100DF40013D220FA02F4E4B204F00104E4B24CB1D8
:100E040055002DB2032424B2AC4024B248EA0405B0
:100E1400A846FFE7521CD2B2E9E701F6C4752C6874
:100E240044EA08042C6001F23C552C6804432C600D
:100E340001F5A1652C6804432C60F7B20E46C2B2DA
:100E440098B205E00197C2B298B2F7B2A846019EE3
:100E540044F2000400EA0404A4B284B30023D1B22F
:100E6400082B14D221FA03F4E4B204F00104E4B22E
:100E740054B15D002DB2032424B2AC4024B248EA3C
:100E8400040422469046FFE75B1CDBB2E8E706F663
:100E9400C4752C6844EA08042C6006F23C552C689E
:100EA4000C432C6006F5A1652C680C432C6006F2FB
:100EB40004552C680C432C60FBB2324602E0D1B2DC
:100EC4003246FBB240F2800400EA0404A4B274B1D6
:100ED40040F2400400EA0404A4B22CB102F5A36574
:100EE4002C680C432C6001E00120FAE006E002F5D6
:100EF400A366CD43EDB234682C40346040F2001454
:100F040000EA0404A4B22CB102F21C552C680C4370
:100F14002C6006E002F21C56CD43EDB234682C403E
:100F2400346040F2002400EA0404A4B2002C3AD055
:100F3400104CA24240F2000500D001250E4CA24202
:100F440040F2000400D0012425400C4CA24240F29F
:100F5400000400D001242540094CA24240F20004C0
:100F640000D0012425400DE000F0FFFF0000000048
:100F74000100000000C0054000B00540009005409D
:100F840000100640594CA24240F2000400D0012453
:100F940005EA04040CB10120A3E002F5A5652C6860
:100FA4000C432C602AE0524CA24240F2000500D1CE
:100FB4000125504CA24240F2000400D101242543F3
:100FC4004D4CA24240F2000400D1012425434B4C75
:100FD400A24240F2000400D101242543434CA24222
:100FE40040F2000400D1012445EA040434B102F5BE
:100FF400A566CD43EDB234682C40346040F600045D
:1010040000EA0404A4B22CB102F5A6652C680C43D2
:101014002C6006E002F5A666CD43EDB234682C40A0
:10102400346040F2004400EA0404A4B22CB102F596
:1010340084652C680C432C6006E002F58466CD437D
:10104400EDB234682C4034600BB9002049E00F2B1A
:1010540001D9012045E0002700208DF80430C3B2F7
:1010640010469DF80420082B12D221FA03F4E4B2AE
:1010740004F00104E4B244B19D002DB24FF00F041A
:10108400AC4047EA04052F46FFE75B1CDBB2EAE706
:1010940000F22C56FD4334682C40346000260023B3
:1010A4008DF80430CBB29DF80410082913D223FA2A
:1010B40001F4E4B204F00104E4B24CB1D5B28C0002
:1010C40024B205FA04F446EA040425462E46FFE752
:1010D400491CC9B2E9E700F22C552C6834432C6052
:1010E4000020DDF800E002B0704700BF0050064069
:1010F40000C0054000B005400090054000100640C7
:1002200081B0664900EA010108467DE06449096839
:1002300041F0010262490A60BEE06149096841F08B
:1002400002025F490A60B7E05D49096841F00402B3
:100250005B490A60B0E05A49096841F00802584910
:100260000A60A9E05649096841F0100254490A6041
:10027000A2E05349096841F0200251490A609BE01D
:100280004F49096841F040024D490A6094E04C49E9
:10029000096841F080024A490A608DE048490968CE
:1002A00041F4807246490A6086E04549096841F494
:1002B000007243490A607FE04149096841F4806265
:1002C0003F490A6078E03E49096841F400623C49D0
:1002D0000A6071E03A49096841F4805238490A607D
:1002E0006AE03749096841F4005235490A6063E021
:1002F0003349096841F4804231490A605CE0304981
:10030000096841F400422E490A6055E02C49096809
:1003100041F480322A490A604EE02949096841F4D3
:10032000003227490A6047E0264988423FF47EAF01
:10033000254988423FF481AF244988423FF484AF85
:10034000234988423FF487AF224988423FF48AAF6D
:10035000214988423FF48DAF204988423FF490AF55
:100360001F4988423FF493AF1E4988423FF496AF3D
:100370001D4988423FF499AF1C4988423FF49CAF25
:100380001B4988423FF49FAF1A4988423FF4A2AF0D
:10039000194988423FF4A5AF184988423FF4A8AFF5
:1003A000174988423FF4ABAF164988423FF4AEAFDD
:1003B000154988423FF4B1AF01B0704700F0FFFF2C
:1003C00008E60F40008005400090054000A0054071
:1003D00000B0054000C0054000D0054000E00540E9
:1003E00000F00540000006400010064000200640D6
:1003F00000300640004006400050064000600640C5
:0C0400000070064000800640009006409E
:1014F80081B0CDF800E0002440F240031BB240F276
:10150800001212B21A4393B2012210B4FFF736FB4D
:0A15180001B0DDF800E001B07047FB
:1019580081B0CDF800E091E0012904D120215A4856
:10196800FFF7DCFD03E020215748FFF7C1FDA5E0A4
:10197800012904D102215448FFF7D0FD03E00221D8
:101988005148FFF7B5FD99E0012904D120214F48BE
:10199800FFF7C4FD03E020214C48FFF7A9FD8DE0C7
:1019A800012904D104214A48FFF7B8FD03E00421C6
:1019B8004748FFF79DFD81E0012904D110214448E3
:1019C800FFF7ACFD03E010214148FFF791FD75E0FA
:1019D800012904D120213E48FFF7A0FD03E0202182
:1019E8003B48FFF785FD69E0012904D10221394808
:1019F800FFF794FD03E002213648FFF779FD5DE02B
:101A0800012904D140213348FFF788FD03E0402134
:101A18003048FFF76DFD51E0012904D110212E480F
:101A2800FFF77CFD03E010212B48FFF761FD45E03F
:101A3800012904D120212848FFF770FD03E0202167
:101A48002548FFF755FD39E0012904D104211F4835
:101A5800FFF764FD03E004211C48FFF749FD2DE072
:101A6800012904D108211948FFF758FD03E008218E
:101A78001648FFF73DFD21E0012020E000283FF453
:101A88006BAF01283FF474AF02283FF47DAF032801
:101A98003FF486AF04283FF48FAF05283FF498AF92
:101AA80006283FF4A1AF0728AAD00828B4D00928EF
:101AB800BED00A28C8D00B28D2D0DDE70020DDF838
:101AC80000E001B0704700BF00C00540009005402D
:0C1AD8000080054000B0054000A0054063
:101CBC0081B0CDF800E009E00846FFF77DFF0AE0AF
:101CCC000846FFF769FF06E0012004E00028F3D086
:0E1CDC000128F5D0F8E7DDF800E001B0704710
:101BC40081B0CDF800E0016808460449FFF7DAFB6C
:101BD4000020DDF800E001B0704700BFF0230000F2
:1013880081B0CDF800E00A4601460348FFF78AF825
:0C139800DDF800E001B0704700000240EA
:1004AC0083B0CDF800E001920A46014601985C4BFE
:1004BC00994216D100245B4B1C60012464B25A4B48
:1004CC001C605A4C5A4B1C605A4C5B4B1C605B4C6E
:1004DC005B4B1C605B4C5C4B1C605C4C5C4B1C6059
:1004EC0065E15C4B994216D100245B4B1C600124E6
:1004FC0064B25A4B1C605A4C4D4B1C60594C4E4BC1
:10050C001C60594C4E4B1C60584C4F4B1C60584C4B
:10051C004F4B1C604BE1574B994216D10024564B64
:10052C001C60012464B2554B1C60554C404B1C6044
:10053C00544C414B1C60544C414B1C60534C424B33
:10054C001C60534C424B1C6031E1524B994216D10A
:10055C000024514B1C60012464B2504B1C60504C65
:10056C00334B1C604F4C344B1C604F4C344B1C6059
:10057C004E4C354B1C604E4C354B1C6017E14D4BB3
:10058C00994216D100244C4B1C60012464B24B4B95
:10059C001C604B4C264B1C604A4C274B1C604A4C35
:1005AC00274B1C60494C284B1C60494C284B1C6049
:1005BC00FDE0484B994216D10024474B1C600124A6
:1005CC0064B2464B1C60464C194B1C60454C1A4B94
:1005DC001C60454C1A4B1C60444C1B4B1C60444C1F
:1005EC001B4B1C60E3E0434B994216D10024424B59
:1005FC001C60012464B2414B1C60414C0C4B1C60D0
:10060C00404C0D4B1C60404C0D4B1C603F4C0E4B3A
:10061C001C603F4C0E4B1C60C9E03E4B99427BE08A
:10062C00000002400400002000C4FC43FFFFFFFF59
:10063C0074000020E111000078000020DD1400009F
:10064C007C000020FFFFFFFF80000020FFFFFFFF6A
:10065C0084000020001002400800002004C4FC4369
:10066C00FFFFFFFFAD11000051130000FFFFFFFF64
:10067C00FFFFFFFF002002400C00002008C4FC43D9
:10068C00FFFFFFFFFD11000035130000FFFFFFFF10
:10069C00FFFFFFFF00300240100000200CC4FC43A1
:1006AC00FFFFFFFF51120000A5130000FFFFFFFF2B
:1006BC00FFFFFFFF00000C401400002010C4FC439F
:1006CC00FFFFFFFF35120000C1130000FFFFFFFF0B
:1006DC00FFFFFFFF00100C401800002014C4FC4367
:1006EC00FFFFFFFF191200006D130000FFFFFFFF5B
:1006FC00FFFFFFFF00200C401C00002018C4FC432F
:10070C00FFFFFFFF21110000A5140000FFFFFFFFFA
:10071C00FFFFFFFF00300C4016D10024414B1C6042
:10072C00012464B2404B1C60404C414B1C60414C5A
:10073C00414B1C60414C424B1C60424C424B1C6078
:10074C00424C434B1C6032E0424B994216D1002480
:10075C00414B1C60012464B2404B1C60404C344B38
:10076C001C60404C344B1C603F4C354B1C603F4C68
:10077C00354B1C603E4C364B1C6018E03D4B99428F
:10078C0015D100243C4B1C60012464B23B4B1C6013
:10079C003B4C274B1C603B4C274B1C603A4C284B6A
:1007AC001C603A4C284B1C60394C294B1C60019244
:1007BC000291FFF72BFE0299019A01F220041023FB
:1007CC002360344B9A4207D106260D1D01242B6859
:1007DC0064F304132B6006E014260D1D00242B6813
:1007EC0064F304132B60FFF70BFE40F2E83300FBBD
:1007FC0003F506FB02F4B5FBF4F318466343EB1A5E
:10080C000BB9401EFFE77F2801D97F20FFE70128A5
:10081C0001D20120FFE701F20C031860DDF800E0C3
:10082C0003B07047200000201CC4FC43FFFFFFFFF7
:10083C00740000200511000078000020C114000095
:10084C007C000020FFFFFFFF80000020FFFFFFFF68
:10085C008400002000800B402400002020C4FC43B6
:10086C00FFFFFFFF3D11000059110000FFFFFFFFCC
:10087C00FFFFFFFF00900B402800002024C4FC4326
:10088C00FFFFFFFF9111000075110000FFFFFFFF3C
:08089C00FFFFFFFFD0CF320087
:1004180081B0CDF800E040F2000B82460AF1D80125
:1004280009788B4539D20C210BFB01F10AEB01014C
:100438008C460CF108010978A9B90CF10801097872
:10044800CCB20CF1060109888BB20CF104010978D1
:10045800CAB2DCF800100846D1B2002210B400F08D
:100468008DFB01B014E00CF108010978CCB20CF155
:10047800060109888BB20CF104010978CAB2DCF8CC
:1004880000100846D1B20F2210B400F077FB01B07B
:100498000BF1010B5FFA8BFBC0E7DDF800E001B060
:0204A80070479B
:0C040C0001480068704700BF4800002055
:101BA40081B0CDF800E0016808460449FFF7EAFB7C
:101BB4000020DDF800E001B0704700BFF023000012
:101DA80081B0CDF800E011E00846FFF7E5FE16E047
:101DB8000846FFF7CFFE12E00846FFF721FF0EE0C6
:101DC8000846FFF70BFF0AE0012008E00028EBD0E7
:101DD8000128EDD02028EFD03028F1D0F4E7DDF845
:061DE80000E001B07047AD
:101B800081B0CDF800E0FFF729FC044A04490A605F
:101B90000020DDF800E001B0704700BFFFFFFFFF4D
:041BA0002C000020F5
:1013DC0082B0CDF800E00346214A22490A60224A35
:1013EC0022490A60224A23490A60234A23490A6097
:1013FC0001932348FFF70AF8019B012252B22149BD
:10140C000A6000BF00BF00BFFFF746FAFEF7F8FF07
:10141C0040F2E83100FB01F210461901914205D966
:10142C00012252B218490A605A0804E0002252B252
:10143C0015490A601A46C100B1FBF2F1491C4B0870
:10144C009A0912490A6003F03F0211490A606022AE
:10145C0010490A60FFF732FADDF800E002B070477D
:10146C00FFFFFFFF88000020FFFFFFFF8C00002024
:10147C00FFFFFFFF90000020FFFFFFFF9400002004
:10148C003822000014C3FC431406224224100140ED
:08149C00281001402C10014052
:1008A40081B0002149B20448016004480160044851
:1008B400016001B0704700BF0006224220062242B8
:0408C40024062242A2
:1008C80081B0012149B2044801600448016004482C
:1008D800016001B0704700BF000622422006224294
:0408E800240622427E
:101B5C0081B0CDF800E0FFF7F5FC044A04490A60B7
:101B6C000020DDF800E001B0704700BFFFFFFFFF71
:041B7C002C00002019
:1015500082B0CDF800E00346214A22490A60224ABF
:1015600022490A60224A23490A60234A23490A6021
:1015700001932348FEF750FF019B012252B22149FB
:101580000A6000BF00BF00BFFFF7D8FAFEF73EFFBA
:1015900040F2E83100FB01F210461901914205D9F1
:1015A000012252B218490A605A0804E0002252B2DD
:1015B00015490A601A46C100B1FBF2F1491C4B08FB
:1015C0009A0912490A6003F03F0211490A60602239
:1015D00010490A60FFF7C4FADDF800E002B0704776
:1015E000FFFFFFFF88000020FFFFFFFF8C000020AF
:1015F000FFFFFFFF90000020FFFFFFFF940000208F
:10160000142300001CC3FC4314062642243001406E
:08161000283001402C3001409C
:100B3C0081B0002149B204480160044801600448B6
:100B4C00016001B0704700BF000626422006264215
:040B5C002406264203
:100B600081B0012149B20448016004480160044891
:100B7000016001B0704700BF0006264220062642F1
:040B800024062642DF
:101C080081B0CDF800E0FFF72DFB044A04490A60D3
:101C18000020DDF800E001B0704700BFFFFFFFFFC4
:041C28002C0000206C
:10126C0082B0CDF800E00346214A22490A60224AA6
:10127C0022490A60224A23490A60234A23490A6008
:10128C0001932348FFF7C2F8019B012252B2214976
:10129C000A6000BF00BF00BFFFF722FBFFF7B0F8EA
:1012AC0040F2E83100FB01F210461901914205D9D8
:1012BC00012252B218490A605A0804E0002252B2C4
:1012CC0015490A601A46C100B1FBF2F1491C4B08E2
:1012DC009A0912490A6003F03F0211490A60602220
:1012EC0010490A60FFF70EFBDDF800E002B0704712
:1012FC00FFFFFFFF88000020FFFFFFFF8C00002096
:10130C00FFFFFFFF90000020FFFFFFFF9400002075
:10131C005C21000008C3FC4314061C4224E000407E
:08132C0028E000402CE0004025
:1008EC0081B0002149B20448016004480160044809
:1008FC00016001B0704700BF00061C4220061C427C
:04090C0024061C425F
:1009100081B0012149B204480160044801600448E3
:10092000016001B0704700BF00061C4220061C4257
:0409300024061C423B
:101BE40081B0CDF800E0FFF7B1FC044A04490A6073
:101BF4000020DDF800E001B0704700BFFFFFFFFFE9
:041C04002C00002090
:101F500081B0CDF800E0482208490948FFF748FF62
:101F6000FFF7E6FE0120FFF7EFFEDE20FFF7F8FEA9
:101F7000FFF7DEFEDDF800E001B0704754250000F9
:041F8000CC2400006D
:101DF00081B0CDF800E00446054B1A700846FFF7A5
:101E000099FE2046FFF76EFEDDF800E001B0704756
:041E100001000020AD
:101B3400026806490A60011D0A6805490A6000F244
:101B440008010A6803490A60704700BF300000209A
:081B54003400002038000020DD
:101AE40000F23003191D0A6805490A6003F218015F
:101AF4000A6804490A60026803490A60704700BF23
:0C1B040040000020440000203C000020B5
:101D300040F6FE07C0F23D077F1EFDD100BF00BF89
:081D400000BF00BF00BF7047A7
:101D480081B0CDF800E0034C2468A047DDF800E03E
:081D580001B070473C000020BF
:0C1B280001490860704700BF907FB84280
:0C1B1C0001490860704700BF807FB8429C
:0C1B100001490860704700BF807FB242AE
:0C1CA40001490860704700BF887FB04213
:0C1C800001490860704700BF907FB0422F
:0C1C8C0001490860704700BF947FB0421F
:0C1C980001490860704700BF807FB64221
:0C1CB00001490860704700BF907FBA42F5
:0C1C740001490860704700BF987FB4422F
:0C1C440001490860704700BF9C7FB4425B
:0C1C380001490860704700BF887FB2427D
:0C1C2C0001490860704700BF8C7FB24285
:0C1C680001490860704700BF947FB8423B
:0C1C5C0001490860704700BF847FB84257
:0C1C500001490860704700BF947FB24259
:0C163C0001490860704700BF887FB04281
:0C16480001490860704700BF907FB0426D
:0C16300001490860704700BF947FB04281
:0C16180001490860704700BF847FB642A3
:0C16240001490860704700BF987FB64283
:0C16540001490860704700BF907FB4425D
:0C17B00001490860704700BF947FB442FC
:0C17BC0001490860704700BF887FB242FE
:0C17A40001490860704700BF8C7FB24212
:101D600082B0CDF800E001AAF9211170802804D2D8
:101D700001A94A1C8021117002E001A9491C0870C8
:101D8000FFF76EFC01AA074909780023C8B2114683
:101D90000222FFF76FFCFFF7CBFFDDF800E002B097
:081DA000704700BF01000020A4
:1016600040F2000212B201210148017010B270472D
:041670000000002056
:1016740085B0CDF800E0ADF80C200A468DF81030A6
:1016840040F20004ADF808401146424C247854B1AD
:1016940001910021404C2468A0470199FFF792FD75
:1016A40000253C4C2570BDF80C40012C0DD10C7864
:1016B4000721E0B2394C2468A047BDF9084004432F
:1016C400ADF80840FFF77EFD57E0BDF80C40022C52
:1016D4001CD10C7801910321E0B2304C2468A0475E
:1016E4000199BDF908400443ADF808404C1C20465C
:1016F400FFF768FD04780521E0B2284C2468A04770
:10170400BDF908400443ADF8084036E00C78019177
:101714000321E0B2214C2468A0470199BDF9084097
:101724000443ADF808404B1CFFF74CFD1946BDF8C7
:101734000C40641EA4B2ADF80C40012C12D90C78F4
:1017440001910121E0B2154C2468A0470199BDF92B
:1017540008400443ADF808404C1C2346FFF732FD13
:101764001946E4E70C780521E0B20C4C2468A04744
:10177400BDF908400443ADF808409DF81040012C21
:1017840002D10125034C2570BDF90800DDF800E005
:1017940005B0704700000020300000203400002015
:1011E00081B0CDF800E0CAB2C1B20348FFF7A2FB5C
:0C11F000DDF800E001B070470000024094
:1009340081B04B009BB213439BB2036001B070477C
:1011AC0081B0CDF800E0CAB2C1B20348FFF7BCFB76
:0C11BC00DDF800E001B0704700100240B8
:1011FC0081B0CDF800E0CAB2C1B20348FFF794FB4E
:0C120C00DDF800E001B070470020024057
:1012500081B0CDF800E0CAB2C1B20348FFF76AFB23
:0C126000DDF800E001B0704700300240F3
:1012340081B0CDF800E0CAB2C1B20348FFF778FB31
:0C124400DDF800E001B0704700000C4035
:1012180081B0CDF800E0CAB2C1B20348FFF786FB3F
:0C122800DDF800E001B0704700100C4041
:1011200081B0CDF800E0CAB2C1B20348FFF702FCBB
:0C113000DDF800E001B0704700200C402A
:1011040081B0CDF800E0CAB2C1B20348FFF710FCC9
:0C111400DDF800E001B0704700300C4036
:10113C0081B0CDF800E0CAB2C1B20348FFF7F4FBAE
:0C114C00DDF800E001B0704700800B40AF
:1011900081B0CDF800E0CAB2C1B20348FFF7CAFB84
:0C11A000DDF800E001B0704700900B404B
:1014DC0081B0CDF800E0CAB2C1B20348FFF72CFAD4
:0C14EC00DDF800E001B070470000024095
:1009440082B0CDF800E04FF000045D4B984205D131
:100954005C4B1D685C4B1B6801935BE05B4B9842EE
:1009640006D15B4B1C685B4B1B680193254651E029
:10097400594B984206D1594B1C68594B1B6801933B
:10098400234646E0574B984206D1574B1C68574BB9
:100994001B68019323463CE0554B984206D1554BC6
:1009A4001C68554B1B680193234632E0534B984215
:1009B40006D1534B1C68534B1B680193234628E014
:1009C400514B984206D1514B1C68514B1B68019303
:1009D40023461EE04F4B984206D14F4B1C684F4BA9
:1009E4001B680193234614E04D4B984206D14D4BAE
:1009F4001C684D4B1B68019323460AE04B4B9842FD
:100A040006D14B4B1C684B4B1B680193234600E0FB
:100A140023461D4600F208031960072A05D0032A5D
:100A240003D004462846D1B215E02E46D1B2024680
:100A34002846131D1C68C4F380135BB148B126B962
:100A44000420019CA047012036E0731E1C46264664
:100A5400FFE7EEE71446231D1960FFF7D3FBFFF70A
:100A6400D1FBFFF7CFFB024625462B1D1C68C4F3C0
:100A740000034BB138B122B90420019CA0470120E6
:100A84001AE0521EFFE7F0E72B1D1C68C4F3400375
:100A94006BB1012902D0032900D008E02B1D1C688A
:100AA400C4F300131BB92C1D40F2040323602B1D57
:100AB4001C68C4F34003D8B2DDF800E002B070470C
:100AC40000000240040000204C00002000100240FE
:100AD4000800002050000020002002400C000020EC
:100AE4005400002000300240100000205800002074
:100AF40000000C40140000205C00002000100C409A
:100B0400180000206000002000200C401C00002081
:100B14006400002000300C40200000206800002009
:100B240000800B40240000206C00002000900B404B
:080B34002800002070000020E1
:1002080040F22607C0F200077F1EFDD100BF00BFE5
:0802180000BF00BF00BF7047EA
:1013500081B0CDF800E0CAB2C1B20348FFF7F2FA9B
:0C136000DDF800E001B070470010024012
:1013340081B0CDF800E0CAB2C1B20348FFF700FBA8
:0C134400DDF800E001B07047002002401E
:1013A40081B0CDF800E0CAB2C1B20348FFF7C8FA71
:0C13B400DDF800E001B07047003002409E
:1013C00081B0CDF800E0CAB2C1B20348FFF7BAFA63
:0C13D000DDF800E001B0704700000C40A8
:10136C0081B0CDF800E0CAB2C1B20348FFF7E4FA8D
:0C137C00DDF800E001B0704700100C40EC
:1014A40081B0CDF800E0CAB2C1B20348FFF748FAF0
:0C14B400DDF800E001B0704700200C40A3
:1014C00081B0CDF800E0CAB2C1B20348FFF73AFAE2
:0C14D000DDF800E001B0704700300C4077
:1011580081B0CDF800E0CAB2C1B20348FFF7EEFB98
:0C116800DDF800E001B0704700800B4093
:1011740081B0CDF800E0CAB2C1B20348FFF7E0FB8A
:0C118400DDF800E001B0704700900B4067
:1011C80049F63E47C0F200077F1EFDD100BF00BFB1
:0811D80000BF00BF00BF70471B
:101E180081B0CDF800E0EE20FFF79EFF40F6FE57B8
:101E2800C0F2277700BF00BF7F1EFDD100BF00BFF3
:101E380000BFDE20FFF790FF40F6FE57C0F227777D
:101E48007F1EFDD100BF00BF00BF00BF00BFCF2075
:101E5800FFF782FF40F6FE57C0F2277700BF00BFAA
:101E68007F1EFDD100BF00BF00BFBF20FFF774FF7A
:101E780040F6FE57C0F227777F1EFDD100BF00BF96
:101E880000BF00BF00BFCF20FFF766FF40F6FE5738
:101E9800C0F2277700BF00BF7F1EFDD100BF00BF83
:101EA80000BFDE20FFF758FF40F6FE57C0F2277745
:101EB8007F1EFDD100BF00BF00BF00BF00BFDDF81F
:061EC80000E001B07047CC
:101ED00081B01CF8019B0BF8019BBBEB0A0FF8D1FA
:041EE00001B0704796
:10202C0081B0CDF800E0344A344B354C354D364E4A
:10203C004FF03011354801600021354801606FF0D8
:10204C00010003EA000133480160C3F3C00018B972
:10205C00FFF744FFFFF742FFC3F3000018B1012163
:10206C0049B22D4801602D48864203D92C49274896
:10207C00016021E02B48864203D92B49234801609B
:10208C001AE04CF25030864203D928491F480160AF
:10209C0012E047F23050864203D925491B480160B3
:1020AC000AE0B6F57A5F03D922491848016003E0CB
:1020BC004FF03011154801601F4804601F4805603F
:1020CC006FF0805002EA000111480160012149B211
:1020DC001B4801601B48016002F0805038B11A485F
:1020EC00006800B9FBE7012149B218480160DDF82E
:1020FC0000E001B0704700BF040030331100000055
:10210C001800800000000000C0D40100C0E00F40A7
:10211C00B0E00F407CE00F40800FFC43A086010034
:10212C00960130008038010055013000D30030009A
:10213C00B20030007100300060E10F4064E10F40EC
:10214C007C16FC437816FC43002DFC437016FC43B4
:101EE80041F67E27C0F206077F1EFDD100BF00BF66
:081EF80000BF00BF00BF7047EE
:101FF40081B002490248016001B07047C0D40100B9
:042004004800002070
:081FEC0081B0FEE701B070476F
:101FC00081B04EF68850CEF20000016841F47001F5
:101FD000016000BF00BF00BF00BFF1EE100A40F477
:0A1FE0004000E1EE100A01B0704766
:1025600000B5DFF824B0DFF824A0DFF824C0FFF7BF
:10257000AFFCDFF820B0DFF820A0DFF820C0FFF7C5
:10258000A7FC00BD704700BF000000200100002034
:10259000AA040000040000202C0000202C250000CC
:1025FC0000B5DFF810B0DFF810A0FFF7BDFC00BD90
:0C260C00704700BF000000209800002074
:0104AA000051
:041E1400A0860100A3
:10215C0000B00540100040050100000000B0054033
:10216C0020004005010000000000000000000000FD
:10217C000000000000000000000000000000000053
:10218C000000000000000000000000000000000043
:10219C000000000000000000000000000000000033
:1021AC000000000000000000000000000000000023
:1021BC000000000000000000000000000000000013
:1021CC000000000000000000000000000000000003
:1021DC0000000000000000000000000000000000F3
:1021EC0000000000000000000000000000000000E3
:1021FC0000000000000000000000000000000000D3
:10220C0000000000000000000000000000000000C2
:10221C0000000000000000000000000000000000B2
:0C222C00000000000000000002000000A4
:1022380000F00540400040050100000000F00540A6
:1022480080004005010000000000000000000000C0
:102258000000000000000000000000000000000076
:102268000000000000000000000000000000000066
:102278000000000000000000000000000000000056
:102288000000000000000000000000000000000046
:102298000000000000000000000000000000000036
:1022A8000000000000000000000000000000000026
:1022B8000000000000000000000000000000000016
:1022C8000000000000000000000000000000000006
:1022D80000000000000000000000000000000000F6
:1022E80000000000000000000000000000000000E6
:1022F80000000000000000000000000000000000D6
:0C230800000000000000000002000000C7
:1023140000A00540100040050100000000A0054099
:102324002000400501000000000000000000000043
:102334000000000000000000000000000000000099
:102344000000000000000000000000000000000089
:102354000000000000000000000000000000000079
:102364000000000000000000000000000000000069
:102374000000000000000000000000000000000059
:102384000000000000000000000000000000000049
:102394000000000000000000000000000000000039
:1023A4000000000000000000000000000000000029
:1023B4000000000000000000000000000000000019
:1023C4000000000000000000000000000000000009
:1023D40000000000000000000000000000000000F9
:0C23E400000000000000000002000000EB
:1023F00000900540040040050200000000900540E8
:1024000008000805020000000000000000000000B5
:1024100000000000000000000000000000000000BC
:1024200000000000000000000000000000000000AC
:10243000000000000000000000000000000000009C
:10244000000000000000000000000000000000008C
:10245000000000000000000000000000000000007C
:10246000000000000000000000000000000000006C
:10247000000000000000000000000000000000005C
:10248000000000000000000000000000000000004C
:10249000000000000000000000000000000000003C
:1024A000000000000000000000000000000000002C
:1024B000000000000000000000000000000000001C
:0C24C0000000000000000000020000000E
:1024CC00291B00001D1B0000111B0000A51C000097
:1024DC00811C00008D1C0000991C0000B11C000028
:1024EC00751C0000451C0000391C00002D1C000050
:1024FC00FFFFFFFFFFFFFFFFFFFFFFFFFFFFFFFFE0
:10250C00FFFFFFFFFFFFFFFFFFFFFFFFFFFFFFFFCF
:10251C00FFFFFFFFFFFFFFFFFFFFFFFFFFFFFFFFBF
:04252C0000000000AB
:0425300000000000A7
:0425340000000000A3
:04253800000000009F
:04253C00000000009B
:042540000000000097
:042544000000000093
:04254800000000008F
:04254C00000000008B
:042550000000000087
:0C255400E1110000DD140000FFFFFFFF9C
:00000001FF
