:02000004000BEF
:10000000FCFF002055160B00FD150B00FD150B0025
:10001000FD150B00FD150B00FD150B00FD150B006C
:10002000FD150B00FD150B00FD150B00FD150B005C
:10003000FD150B00FD150B00FD150B00FD150B004C
:10004000FD150B00FD150B00FD150B00FD150B003C
:10165400FFF7ECFF00F010F8FFF7D2FF00F060F99D
:1016640000F05AF800F01CF9FFF79EFFFFF782FF25
:08167400FFF7FCFEFCE7FEE7B6
:10153C0081B04FF000094FF0000CBDEB0A0F04DC3A
:10154C00BDEB0B0F01DBD446EA464BF8049BBBEB1F
:10155C000A0FFAD1BCEB0A0F05DDE246D9F800B050
:0A156C000BF1040BF1E701B070472A
:1015AC0081B0CDF800E0002200210020FFF7D2FE30
:1015BC00012201210020FFF7CDFE0C48014600203E
:1015CC00FFF7B0FE42F280510120FFF721FF46F6F3
:1015DC00FE17C0F2180700BF00BF7F1EFDD100BF71
:1015EC0000BF00BFDDF800E001B07047A0180B0091
:1013600081B0CDF800E05FFA81F95FFA82FA0FE010
:101370005FFA8AF15FFA89F0FFF70CFE0DE05FFA81
:101380008AF15FFA89F0FFF70DFD06E0012004E025
:101390000028EDD00128F2D0F8E7DDF800E001B038
:0213A000704794
:100F940081B0CDF800E0A9E0012905D140F20101BA
:100FA4006548FFF719FE04E040F201016248FFF7CB
:100FB400E9FDBBE0012905D140F220015F48FFF7BC
:100FC4000BFE04E040F220015C48FFF7DBFDADE0DE
:100FD400012905D140F208015948FFF7FDFD04E05D
:100FE40040F208015648FFF7CDFD9FE0012905D1E5
:100FF40040F210015348FFF7EFFD04E040F2100106
:101004005048FFF7BFFD91E0012905D140F24001AE
:101014004C48FFF7E1FD04E040F240014948FFF786
:10102400B1FD83E0012905D140F210014448FFF7E6
:10103400D3FD04E040F210014148FFF7A3FD75E041
:10104400012905D140F210013F48FFF7C5FD04E036
:1010540040F210013C48FFF795FD67E0012905D1F6
:1010640040F201013748FFF7B7FD04E040F2010107
:101074003448FFF787FD59E0012905D140F22001EA
:101084003248FFF7A9FD04E040F220012F48FFF7A2
:1010940079FD4BE0012905D140F210012B48FFF7FF
:1010A4009BFD04E040F210012848FFF76BFD3DE092
:1010B400012905D140F201012548FFF78DFD04E027
:1010C40040F201012248FFF75DFD2FE0012905D11F
:1010D40040F280011A48FFF77FFD04E040F28001EE
:1010E4001748FFF74FFD21E0012020E000283FF4DE
:1010F40053AF01283FF45EAF02283FF469AF0328E1
:101104003FF474AF04283FF47FAF05283FF48AAF5F
:1011140006283FF495AF0728A0D00828ACD00928AA
:10112400B8D00A28C4D00B28D0D0DDE70020DDF8E1
:1011340000E001B0704700BF001208408010084072
:101144000010084060100840601108400011084079
:04115400201008401F
:100BDC0081B0CDF800E0044AC9B2FFF71FFDDDF883
:0C0BEC0000E001B0704700BF00041000E2
:1006280081B01446314B984203D8314B984200D3DD
:1006380000E058E02E4BC31A03F01F0303B152E049
:10064800064600F5A0624FF6FF7304EA0303184656
:10065800284B04EA03031B0C40F20008CFB2014602
:100668001846B8F1080F3ED201231BB203FA08F36B
:100678001BB21CB207EA0403A34231D101F4405370
:100688008BB14FEA8803F5182C686FF4405304EADD
:1006980003032B604FEA8803F51801F440542B68D4
:1006A80023432B601CE04FEA8803F5182C68114B94
:1006B80004EA03032B604FEA8803F41823680B430A
:1006C80023604FEA8803D5182C686FF0FF0304EA0B
:1006D80003032B604FEA8803D4182368034323607D
:1006E80008F10108BDE701B0704700BFC01208401B
:0806F800001008400000FFFFA4
:100B880081B0CDF800E0044AC9B2FFF749FDDDF8AD
:0C0B980000E001B0704700BF0006200024
:100DA40081B0CDF800E0A9E0012905D140F20201AB
:100DB4006548FFF711FF04E040F202016248FFF7C3
:100DC400E1FEBBE0012905D140F220015F48FFF7B5
:100DD40003FF04E040F220015C48FFF7D3FEADE0DE
:100DE400012905D140F208015948FFF7F5FE04E056
:100DF40040F208015648FFF7C5FE9FE0012905D1DE
:100E040040F210015348FFF7E7FE04E040F21001FE
:100E14005048FFF7B7FE91E0012905D140F24001A7
:100E24004C48FFF7D9FE04E040F240014948FFF77F
:100E3400A9FE83E0012905D140F210014448FFF7DF
:100E4400CBFE04E040F210014148FFF79BFE75E041
:100E5400012905D140F204013D48FFF7BDFE04E03D
:100E640040F204013A48FFF78DFE67E0012905D1FD
:100E740040F204013848FFF7AFFE04E040F20401F9
:100E84003548FFF77FFE59E0012905D140F22001E2
:100E94003248FFF7A1FE04E040F220012F48FFF79B
:100EA40071FE4BE0012905D140F210012B48FFF7F8
:100EB40093FE04E040F210012848FFF763FE3DE092
:100EC400012905D140F201012548FFF785FE04E020
:100ED40040F201012248FFF755FE2FE0012905D118
:100EE40040F280011A48FFF777FE04E040F28001E7
:100EF4001748FFF747FE21E0012020E000283FF4D7
:100F040053AF01283FF45EAF02283FF469AF0328D2
:100F14003FF474AF04283FF47FAF05283FF48AAF51
:100F240006283FF495AF0728A0D00828ACD009289C
:100F3400B8D00A28C4D00B28D0D0DDE70020DDF8D3
:100F440000E001B0704700BF001208408010084064
:100F540000100840601008402011084000110840AB
:040F64002010084011
:1013300081B0CDF800E009E00846FFF791FF0AE030
:101340000846FFF755FF06E0012004E00028F3D02F
:0E1350000128F5D0F8E7DDF800E001B07047A5
:1012600081B0CDF800E0016808460449FFF760FC52
:101270000020DDF800E001B0704700BFA8170B00A8
:100B300081B0CDF800E083468C4600230D4A136057
:100B40006046FFF75BFC0C4C0C4B0D4A19461046F7
:100B50002246FFF743FC0CF10C021268D3B2094A9B
:100B6000126859461046DAB2FFF7E4FCDDF800E0FF
:100B700001B070470C000020310C0B00FFFFFFFF9D
:080B8000150B0B00080000201A
:1003FC0081B0CDF800E040F2000A81464FEA8A0154
:10040C0009EB01010968B1F1FF3F12D009F1340188
:10041C004FEA8A03C91809680A4609EB03010968FF
:10042C0008461146FFF7B8FF0AF1010A1FFA8AFACB
:0A043C00E4E7DDF800E001B07047CE
:1003A40082B0CDF800E000F0FF02130902F00F0262
:1003B4001446D8B2FFF778FF012212B2A240ADF87A
:1003C400042000460A469DF8041000F02BF9DDF8DD
:0603D40000E002B07047DA
:1002AC0081B027E028484DE028484BE0284849E039
:1002BC00284847E0284845E0284843E0284841E0E2
:1002CC0028483FE028483DE028483BE0284839E0F2
:1002DC00284837E0284835E0284833E0284831E002
:1002EC0028482FE028482DE028482BE0284829E012
:1002FC00284827E00028D5D00128D5D00228D5D011
:10030C000328D5D00428D5D00528D5D00628D5D09B
:10031C000728D5D00828D5D00928D5D00A28D5D07B
:10032C000B28D5D00C28D5D00D28D5D00E28D5D05B
:10033C000F28D5D01028D5D01128D5D01228D5D03B
:10034C001328D5D001B07047001008402010084089
:10035C00401008406010084080100840A010084071
:10036C00C0100840E010084000110840201108405F
:10037C00401108406011084080110840A01108404D
:10038C00C0110840E011084000120840201208403B
:08039C00401208406012084005
:1003DC0081B0044B1860044B1960044B1A6001B0D7
:1003EC00704700BF580000205C0000206000002017
:1005340081B000F2280440F20023236000F2280472
:100544000023236080230370041D012323800129D9
:1005540015D100F22C0444F64F73238000F24004BA
:10056400234B236000F22404224B236000F2440452
:10057400214B236000F218044D2323702EE004293C
:1005840015D100F22C0440F61773238000F24004C6
:100594001A4B236000F22404194B236000F2440434
:1005A400184B236000F218040A23237016E0102964
:1005B40014D100F22C0440F20953238000F24004C9
:1005C400114B236000F224040D4B236000F2440419
:1005D4000C4B236000F2180406232370C12303701C
:1005E40000F2280442F4E0531BB2236001B07047C8
:1005F40006434D0CED01FC01C7C29C4B010A0A04E1
:0C06040050000001C7C29C14010606064D
:1011F00081B0CDF800E0016808460449FFF798FC8B
:101200000020DDF800E001B0704700BFA8170B0018
:10141C0081B0CDF800E009E00846FFF7CFFE0AE006
:10142C000846FFF7EFFE06E0012004E00028F3D0A9
:0E143C000128F5D0F8E7DDF800E001B07047B8
:1011C80081B0CDF800E0002300220321FFF78AFB5D
:1011D800034A04490A600020DDF800E001B07047C6
:0811E80091110B00240000200E
:1008EC0084B0CDF800E01FFA82FB1FFA83FC0022D3
:1008FC008DF80420ADF8081003904A48FFF778FDF6
:10090C000398BDF808109DF80420ADF8041002906F
:10091C00FFF778FE0298BDF804100025424C2570B4
:10092C000025424C2570B0F5E13F06D9404CA04261
:10093C0003D83F4CB4FBF0F308E0B0F5E13F04D82A
:10094C004FF4E134B4FBF0F300E00123ADF80410F4
:10095C000290FFF773FD0298BDF8041003F0FF043A
:10096C00E5B2344C25701C0A04F07F04E5B2324C1D
:10097C002570B0F5E13F06D92F4C247844F0800562
:10098C002D4C257005E02C4C247804F07F052A4C66
:10099C002570ADF80410FFF735FEBDF804100025E6
:1009AC00264C25700BE042F00100C0B20EE042F084
:1009BC000200C0B20AE042F00300C0B206E0012916
:1009CC00F1D00229F3D00329F5D0F4E74FEA8C04D7
:1009DC00A4B240EA04044FEACB05ADB2E4B22C4316
:1009EC00E4B204F07F05154C25700025144C2570DD
:1009FC000025144C2570144D144C2560144D154CC9
:100A0C002560154D154C2560154D164C2560164C62
:100A1C00247844F00105144C2570DDF800E004B096
:100A2C00704700BF40170B00F0270F4001240F4008
:100A3C0060E3160000240F4001240F4003240F40F4
:100A4C0004240F4002240F409D080B006C00002072
:100A5C0091110B0070000020150C0B00740000208D
:0C0A6C00F90B0B007800002030270F4031
:1006100081B00448007800F07F010248017001B009
:08062000704700BF03240F40E6
:1004480081B00448007840F080010248017001B092
:08045800704700BF03240F40B0
:1012100081B0CDF800E0002300220321FFF766FB38
:10122000034A04490A600020DDF800E001B070477D
:0812300091110B0024000020C5
:1015780081B0CDF800E0482208490948FFF762FF2A
:10158800FFF70CFF0120FFF715FFDE20FFF71EFF16
:10159800FFF704FFDDF800E001B0704794180B0076
:0415A80010180B000C
:10144C0081B0CDF800E00446054B1A700846FFF752
:10145C00EDFE2046FFF782FDDDF800E001B070479D
:04146C002800002034
:10123800026806490A60011D0A6805490A6000F249
:1012480008010A6803490A60704700BF2C000020A3
:081258003000002034000020EA
:100F680000F23003191D0A6805490A6003F21801E6
:100F78000A6804490A60026803490A60704700BFAA
:0C0F8800380000203C0000204000002049
:1013A40046F6FE17C0F2180700BF00BF7F1EFDD12E
:0813B40000BF00BF00BF70473D
:1013BC0081B0CDF800E0034C2468A047DDF800E0D4
:0813CC0001B070474000002051
:1011900082B0CDF800E08DF80400FFF739FA084975
:1011A000097801F02001C9B201B9F8E79DF80410EF
:1011B00001F0FF0203490A70DDF800E002B0704759
:0811C00005240F4000240F403C
:1011580082B0CDF800E08DF80400FFF78FFB084956
:10116800097801F02001C9B201B9F8E79DF8041027
:1011780001F0FF0203490A70DDF800E002B0704791
:0811880005280F4000280F406C
:1008840081B00448007800F07F010248017001B093
:08089400704700BF03280F406C
:10128000024A117860F30001117070479013084012
:10130000024A117860F34511117070478413084048
:1012F000024A117860F3C3011170704780130840EF
:10131000024A117860F3041111707047831308407A
:10132000024A117860F386111170704783130840E8
:1012E000024A117860F304111170704780130840AE
:1012A000024A117860F30411117070478B130840E3
:10129000024A117860F3000111707047831308400F
:1012B000024A117860F34511117070478813084095
:1012D000024A117860F304111170704788130840B6
:1012C000024A117860F300011170704781130840E1
:100CC000024A117860F3C711117070478013084011
:100CD000024A117860F34101117070479013084087
:100CE000024A117860F3C7111170704784130840ED
:100CB000024A117860F34511117070478E13084095
:100C8000024A117860F30411117070478313084011
:100C9000024A117860F3861111707047831308407F
:100CA000024A117860F304111170704780130840F4
:100CF000024A117860F38201117070478013084036
:100D7400024A117860F382011170704789130840A8
:100D8400024A117860F345111170704788130840C6
:100D9400024A117860F304111170704788130840F7
:100D0000024A117860F300011170704781130840A6
:100D1000024A117860F3C7111170704780130840C0
:1013D40082B0CDF800E001AAF9211170802804D26E
:1013E40001A94A1C8021117002E001A9491C08705E
:1013F400FFF794FC01AA074909780123C8B21146F2
:101404000222FFF7A1FCFFF7CBFFDDF800E002B0FA
:08141400704700BF2800002012
:100D200082B0CDF800E040F20004ADF80440064C7B
:100D30002468A047BDF9041041EA000000B2DDF8C4
:0C0D400000E002B0704700BF2C00002053
:100B140081B0CDF800E004480068FFF79FFC002096
:0C0B2400DDF800E001B070470800002080
:1004600081B0CDF800E04FF00002244909688842CD
:1004700007D123490B6823490A6823490A601A46B1
:1004800025E022490968884207D121490B682149A2
:100490000A681D490A601A4619E01F49096888421E
:1004A00007D11E490B681E490A6817490A60194698
:1004B0000CE01C490968884207D11B490B681B499D
:1004C0000A6811490A60194600E011460A461849AF
:1004D0000A60017801F00101C9B259B914490968EB
:1004E00039B122B90520084C2468A04702E0521E09
:1004F000FFE7EEE7DDF800E001B0704708000020FC
:100500000C000020480000204400002010000020C3
:10051000140000204C0000200000002018000020E3
:1005200050000020040000201C0000205400002087
:040530002000002087
:100A9C0081B0CDF800E004480068FFF7DBFC0020D3
:0C0AAC00DDF800E001B0704710000020F1
:100ADC0081B0CDF800E004480068FFF7BBFC0020B3
:0C0AEC00DDF800E001B0704700000020C1
:100AF80081B0CDF800E004480068FFF7ADFC0020A5
:0C0B0800DDF800E001B0704704000020A0
:10089C0081B0CDF800E0FFF7B5FE0648007800F017
:1008AC000100C0B200B9F8E703480078DDF800E0B9
:0C08BC0001B0704705240F4000240F40DD
:100C140081B00548007800F00100C0B208B101209D
:0C0C240000E0002001B0704705240F40E4
:100BF80081B00548007800F04000C0B208B101207B
:0C0C080000E0002001B0704705240F4000
:100C540081B0CDF800E0FFF713FE0648007800F0FD
:100C64000100C0B200B9F8E703480078DDF800E0FD
:0C0C740001B0704705280F4000280F4019
:100BC00081B00548007800F00100C0B208B10120F2
:0C0BD00000E0002001B0704705280F4035
:100BA40081B00548007800F04000C0B208B10120CF
:0C0BB40000E0002001B0704705280F4051
:100D4C0082B0CDF800E040F20004ADF80440054C50
:100D5C002468A047BDF90440044320B2DDF800E04C
:080D6C0002B0704730000020C6
:100C300081B0CDF800E0064C246808B413460A469B
:100C40002146FFF75DFD01B0DDF800E001B070471F
:040C50000800002078
:1007000082B0CDF800E0029E40F200074FF00005F5
:100710004E4C2468A14208D14D4CD4F800804D4C79
:1007200025684D4C2560454628E04C4C2468A14284
:1007300008D14B4CD4F800804A4C2568464C2560C3
:1007400045461BE0484C2468A14208D1474CD4F8E8
:100750000080474C2568404C256044460DE0454CE0
:100760002468A14208D1444CD4F80080434C256849
:10077000394C2560444600E02C462546404C256017
:1007800001F2080544002C70C5240C70B8B20F4665
:100790001D46A84231D23A4CD4F80080334639463F
:1007A00017462A460C7804F08004E4B27CB1344C3D
:1007B00024685CB1B8F1000F04D10420264C2468F1
:1007C000A0473FE0A8F10105A846FFE7EAE70C785B
:1007D00004F00804E4B23CB901F208053C1824789E
:1007E0002C70401C80B203E001911146019A07E091
:1007F00015463A460F461E46CBE73A46294633464B
:100800001F4C2568147804F08004E4B25CB11C4CE1
:1008100024683CB125B904200F4C2468A04711E09E
:100820006D1EFFE7EEE733B1C324147002F2080532
:1008300000242C7001E045241470884201D201206C
:1008400000E00020DDF800E002B070470800002062
:100850000C00002048000020440000201000002070
:10086000140000204C000020000000201800002090
:1008700050000020040000201C0000205400002034
:040880002000002034
:100A780081B0CDF800E0064C246808B413460A4655
:100A88002146FFF739FE01B0DDF800E001B07047FC
:040A9800100000202A
:1008C80081B0CDF800E0064C246808B413460A4607
:1008D8002146FFF711FF01B0DDF800E001B07047D5
:0408E80000000020EC
:100AB80081B0CDF800E0064C246808B413460A4615
:100AC8002146FFF719FE01B0DDF800E001B07047DC
:040AD80004000020F6
:1014700081B0CDF800E0EE20FFF7ACFF46F6FE3776
:10148000C0F2DC2700BF00BF7F1EFDD100BF00BF40
:1014900000BFDE20FFF79EFF46F6FE37C0F2DC27D6
:1014A00000BF00BF7F1EFDD100BF00BF00BFCF2027
:1014B000FFF790FF46F6FE37C0F2DC2700BF00BF03
:1014C0007F1EFDD100BF00BF00BFBF20FFF782FF1E
:1014D00046F6FE37C0F2DC2700BF00BF7F1EFDD1FD
:1014E00000BF00BF00BFCF20FFF774FF46F6FE37F6
:1014F000C0F2DC2700BF00BF7F1EFDD100BF00BFD0
:1015000000BFDE20FFF766FF46F6FE37C0F2DC279D
:1015100000BF00BF7F1EFDD100BF00BF00BFDDF8D0
:0615200000E001B070477D
:1015280081B01CF8019B0BF8019BBBEB0A0FF8D1AB
:0415380001B0704747
:10167C0081B0CDF800E01F4B1F4A204C2048006879
:10168C0040F002011E480160012A08D0032A06D04E
:10169C00042A04D0102A02D0302A00D002E01948C3
:1016AC00026002E0012117480160C4F3C002164930
:1016BC00086862F3C3000860C4F38002124908682A
:1016CC0062F382000860C4F340020F49086862F3B9
:1016DC0041000860C4F300020B49086862F3000083
:1016EC000860FFF759FE09480360DDF800E001B01F
:1016FC00704700BFE0010000010000000000000086
:10170C0008E000E00401084008A40040080108407B
:10171C0081B004490448016004490548016001B0E6
:10172C00704700BF80BB0000640000200000000078
:04173C006800002021
:0815FC0081B0FEE701B0704769
:1016040081B04EF68850CEF20000016841F47001BA
:10161400016000BF00BF00BF00BFF1EE100A40F43C
:0A1624004000E1EE100A01B070472B
:1016300081B0DFF81000DFF810100860D0F800D09B
:1016400000F004B800000B0008ED00E000BF01B09E
:021650007047E1
:1018A40000B5DFF814B0DFF814A0DFF814C0FFF7B8
:1018B40039FE00BD704700BF000000202400002056
:0418C40070180B008D
:1019240000B5DFF810B0DFF810A0FFF705FE00BD2A
:0C193400704700BF000000207C00002075
:101740008500000084000000FFFFFFFF0000000094
:101750000000000000000000000000000000000089
:101760000000000000000000000000000000000079
:101770000000000000100000001000000000000049
:101780000000000000000000000000000000000059
:101790000000000000000000000000000000000049
:0817A000000000000000000041
:1017A8001000000007000000FFFFFFFF030000001B
:1017B8000000000000000000000000000000000021
:1017C8000000000000000000000000000000000011
:1017D80000000000001000000010000000000000E1
:1017E80000000000000000000000000000000000F1
:1017F80000000000000000000000000000000000E1
:081808000000000000000000D8
:1018100081120B0001130B00F1120B0011130B00CE
:1018200021130B00E1120B00A1120B0091120B000F
:10183000B1120B00D1120B00C1120B00C10C0B0036
:10184000FFFFFFFFFFFFFFFFFFFFFFFFFFFFFFFFA8
:10185000FFFFFFFFFFFFFFFFFFFFFFFFFFFFFFFF98
:10186000FFFFFFFFFFFFFFFFFFFFFFFFFFFFFFFF88
:0418700000480040EC
:04187400004C0040E4
:0418780000400040EC
:04187C000000000068
:0418800000440040E0
:041884000000000060
:04188800000000005C
:04188C000000000058
:041890000000000054
:0C189400150B0B00310C0B00FFFFFFFFD9
:0418A0000100000043
:00000001FF
