:10000000FCFF0020B91C00009D1C00009D1C00008E
:100010009D1C00009D1C00009D1C00009D1C0000FC
:100020009D1C00009D1C00009D1C00009D1C0000EC
:100030009D1C00009D1C00009D1C00009D1C0000DC
:100040009D1C00009D1C00009D1C00009D1C0000CC
:100050009D1C00009D1C00009D1C00009D1C0000BC
:100060009D1C00009D1C00009D1C00009D1C0000AC
:100070009D1C00009D1C00009D1C00009D1C00009C
:100080009D1C00009D1C00009D1C00009D1C00008C
:100090009D1C00009D1C00009D1C00009D1C00007C
:1000A0009D1C00009D1C00009D1C00009D1C00006C
:1000B0009D1C00009D1C00009D1C00009D1C00005C
:1000C0009D1C00009D1C00009D1C00009D1C00004C
:1000D0009D1C00009D1C00009D1C00009D1C00003C
:1000E0009D1C00009D1C00009D1C00009D1C00002C
:1000F0009D1C00009D1C00009D1C00009D1C00001C
:101CB80000F010F8FFF7D8FF00F036FBFFF7EEFF53
:101CC80000F0E4FAFFF770FFFFF796FFFFF7F4FE66
:041CD800FCE7FEE740
:101C340081B04FF000094FF0000CBDEB0A0F04DC3B
:101C4400BDEB0B0F01DBD446EA464BF8049BBBEB20
:101C54000A0FFAD1BCEB0A0F05DDE246D9F800B051
:0A1C64000BF1040BF1E701B070472B
:101BB00081B0CDF800E0002200210020FFF7CEFE2A
:101BC000012201210020FFF7C9FE0C480146002038
:101BD000FFF7E6FE42F280510120FFF729FF44F6AD
:101BE0007D77C0F2120700BF7F1EFDD100BF00BF8E
:101BF00000BF00BFDDF800E001B07047FC19000035
:10195C0081B0CDF800E05FFA81F95FFA82FA0FE00E
:10196C005FFA8AF15FFA89F0FFF7B0FE0DE05FFADB
:10197C008AF15FFA89F0FFF7C1FD06E0012004E06F
:10198C000028EDD00128F2D0F8E7DDF800E001B036
:02199C00704792
:1016D80081B0CDF800E0A9E0012905D140F201016F
:1016E8006548FFF707FE04E040F201016348FFF791
:1016F8001FFEBBE0012905D140F240016048FFF719
:10170800F9FD04E040F240015E48FFF711FEADE04C
:10171800012905D140F201015948FFF7EBFD04E02A
:1017280040F201015748FFF703FE9FE0012905D168
:1017380040F220015448FFF7DDFD04E040F22001AB
:101748005248FFF7F5FD91E0012905D140F28001EB
:101758004D48FFF7CFFD04E040F280014B48FFF70A
:10176800E7FD83E0012905D140F240014648FFF733
:10177800C1FD04E040F240014448FFF7D9FD75E09F
:10178800012905D140F280014148FFF7B3FD04E08B
:1017980040F280013F48FFF7CBFD67E0012905D102
:1017A80040F210013A48FFF7A5FD04E040F21001AD
:1017B8003848FFF7BDFD59E0012905D140F2040181
:1017C8003548FFF797FD04E040F204013348FFF77E
:1017D800AFFD4BE0012905D140F208012E48FFF783
:1017E80089FD04E040F208012C48FFF7A1FD3DE027
:1017F800012905D140F220011F48FFF77BFD04E0D5
:1018080040F220011D48FFF793FD2FE0012905D183
:1018180040F210011848FFF76DFD04E040F2100196
:101828001648FFF785FD21E0012020E000283FF45D
:1018380053AF01283FF45EAF02283FF469AF032895
:101848003FF474AF04283FF47FAF05283FF48AAF14
:1018580006283FF495AF0728A0D00828ACD009285F
:10186800B8D00A28C4D00B28D0D0DDE70020DDF896
:1018780000E001B0704700BF414C0040434C0040BD
:10188800404C0040424C0040004C0040024C00409C
:10189800014C0040034C0040204C0040224C0040CA
:1012FC0081B0CDF800E0002424B240F240031BB2D0
:10130C0040F2040212B242EA03031BB240F20102A1
:10131C0012B243EA020293B2002210B4FFF704FDAA
:0A132C0001B0DDF800E001B07047E9
:100D340083B0CDF800E08DB20146D0B2BDF90C20ED
:100D440001F0010414B12F02BFB200E0AFB28F4C26
:100D54000C1B640965018D4C6419A0468C4CA0429F
:100D640007D108F10406FD43ADB234882C40348029
:100D740007E0884CA04204D108F104052C883C43C8
:100D84002C8040F2010403EA0404A4B23CB108F14B
:100D94000606FD43ADB234882C4034800AE040F2AC
:100DA400020403EA0404A4B224B108F106052C8861
:100DB4003C432C8040F2040403EA0404A4B23CB192
:100DC40008F10806FD43ADB234882C4034800AE0B3
:100DD40040F2080403EA0404A4B224B108F10805AB
:100DE4002C883C432C8040F2100403EA0404A4B28F
:100DF4003CB108F11806FD43ADB234882C40348070
:100E04000AE040F2200403EA0404A4B224B108F185
:100E140018052C883C432C8040F2400403EA040467
:100E2400A4B23CB108F11A06FD43ADB234882C409B
:100E340034800AE040F2800403EA0404A4B224B13A
:100E440008F11A052C883C432C8003F48074A4B266
:100E54007CB908F10A06FD43ADB234882C403480D5
:100E640008F10C06FD43ADB234882C4034800020D8
:100E740087E01F2A01DD012083E0FFF743FD002006
:100E8400B9B2C7B24046102F80F07A8021FA07F435
:100E9400A4B204F00104A4B2002C00F06E8000F2AD
:100EA4000A06CD43ADB234882C40348000F20C06DF
:100EB400CD43ADB234882C40348003F48064A4B2B2
:100EC4002CB1ADF806100024ADF808400DE003F491
:100ED4000064A4B22CB10024ADF80640ADF80810AB
:100EE40003E0ADF80610ADF8081000F20A063588E4
:100EF400BDF8064045EA0404348000F20C06358847
:100F0400BDF8084045EA04043480234C041B6409FA
:100F1400ADF80440214CA24218D0BDF80440E400CE
:100F2400A4B265001E4C65197C08E4B264002E1955
:100F340007F00104E4B2E5002DB240F2FF04AC4036
:100F4400A4B2E543ADB234882C403480BDF80440EB
:100F5400E400A4B26500124C65197C08E4B2640094
:100F64002E1907F00104E4B2E5002DB294B204FA9C
:100F740005F5ADB234882C4334807F1CFFB282E780
:100F84000020DDF800E003B0704700BF004C0040D3
:100F94000000000001000000004C004000000000C0
:040FA40008500040B1
:1009080081B042F652510348018002210248018019
:0C09180001B07047005000400250004049
:1013380081B0CDF800E0002424B240F240031BB293
:1013480040F2040212B242EA03031BB240F2010265
:1013580012B243EA020293B2012210B4FFF7E6FC8C
:0A13680001B0DDF800E001B07047AD
:1015080081B0CDF800E0A9E0012905D140F2080139
:101518006548FFF7EFFE04E040F208016348FFF773
:1015280007FFBBE0012905D140F280016048FFF7C1
:10153800E1FE04E040F280015E48FFF7F9FEADE00D
:10154800012905D140F204015B48FFF7D3FE04E00E
:1015580040F204015948FFF7EBFE9FE0012905D14D
:1015680040F220015648FFF7C5FE04E040F2200192
:101578005448FFF7DDFE91E0012905D140F28001D2
:101588004F48FFF7B7FE04E040F280014D48FFF7EF
:10159800CFFE83E0012905D140F240014848FFF71A
:1015A800A9FE04E040F240014648FFF7C1FE75E09D
:1015B800012905D140F240014348FFF79BFE04E0B2
:1015C80040F240014148FFF7B3FE67E0012905D129
:1015D80040F240013648FFF78DFE04E040F240013A
:1015E8003448FFF7A5FE59E0012905D140F204016E
:1015F8003548FFF77FFE04E040F204013348FFF767
:1016080097FE4BE0012905D140F208012E48FFF76B
:1016180071FE04E040F208012C48FFF789FE3DE026
:10162800012905D140F220012148FFF763FE04E0BB
:1016380040F220011F48FFF77BFE2FE0012905D16A
:1016480040F210011A48FFF755FE04E040F210017D
:101658001848FFF76DFE21E0012020E000283FF444
:1016680053AF01283FF45EAF02283FF469AF032867
:101678003FF474AF04283FF47FAF05283FF48AAFE6
:1016880006283FF495AF0728A0D00828ACD0092831
:10169800B8D00A28C4D00B28D0D0DDE70020DDF868
:1016A80000E001B0704700BF214C0040234C0040CF
:1016B800414C0040434C0040404C0040424C0040EC
:1016C800004C0040024C0040014C0040034C0040DC
:1019A00081B0CDF800E009E00846FFF78FFF0AE0BC
:1019B0000846FFF779FF06E0012004E00028F3D095
:0E19C0000128F5D0F8E7DDF800E001B070472F
:1018CC0081B0CDF800E0011D0A6801680846114698
:1018DC00034AFFF7FDFC0020DDF800E001B0704783
:0418EC00D81F000001
:1012DC0081B0CDF800E013460A4601460348FFF7FB
:1012EC0099FCDDF800E001B0704700BF002400401D
:100C200087B0CDF800E08446059106921846FFF79C
:100C30005DFC6046FFF7A4FC06996046FFF74AFC9E
:100C4000BCF8005040F6017445EA0404ACF80040DA
:100C500001AC2046FFF776FE069C402C05D1059D91
:100C6000019CB4FBF5F4A0B209E0069C802C05D1F0
:100C7000059D049CB4FBF5F4A0B200E000200CF14B
:100C8000060420801D4CA44506D11D4D1D4C256039
:100C90001D4D1E4C25601CE01D4CA44506D11D4D6C
:100CA000184C25601C4D194C256012E01B4CA445C6
:100CB00006D11B4D134C25601A4D144C256008E0DD
:100CC000194CA44505D1194D0E4C2560184D0F4CFB
:100CD000256040F201016046FFF796FC6046FFF791
:100CE000A7FC03216046FFF785FC02216046FFF761
:100CF0004FFCDDF800E007B0704700BF0020004067
:100D0000FFFFFFFF48000020591200004C000020A8
:100D100000240040FFFFFFFF8D110000002800406D
:100D2000FFFFFFFFB1110000002C0040FFFFFFFF9D
:040D30003512000078
:1009440082B0CDF800E004462849096801F4E0616A
:10095400090A08462549096801F0E061090E0A46BA
:10096400214601911146FFF731FC019908601F49A6
:10097400096801F07001090908461C49096801F475
:10098400E001090D0A4604F2080101911146FFF73E
:100994001DFC019908601549096801F070010909F5
:1009A40008461249096801F0E041090F0A4604F2B9
:1009B4000C0101911146FFF709FC019908600B49EC
:1009C400096801F0070108460849096801F4E021B3
:1009D400090C0A46211D01911146FFF7F7FB019905
:1009E4000860DDF800E002B0704700BF0804014071
:1001D00081B0CDF800E002460846FFF791FFC3B2B8
:1001E00071E0424A126802F00102D2B140F201000D
:1001F000FFF7D8FF3D4A126802F001028AB13C4A7B
:10020000126802F400422AB14FF4FA3292FBF3F280
:10021000104666E048F20002B2FBF3F292B290B2EE
:100220005FE0344A1268B2FBF3F2104659E02F4AFD
:10023000126802F00202D2B140F20200FFF7B2FFF0
:100240002A4A126802F002028AB1294A126802F4AC
:1002500000422AB14FF4FA3292FBF3F2104640E02A
:1002600048F20002B2FBF3F292B290B239E0224AB5
:100270001268B2FBF3F2104633E0204A1268B2FB78
:10028000F3F210462DE01A4A126802F400422AB135
:100290004FF4FA3292FBF3F2104622E048F20002E9
:1002A000B2FBF3F292B290B21BE0FFF73DFFB0FB5E
:1002B000F3F2104615E0124A1268B2FBF3F2104650
:1002C0000FE000200DE0002A3FF48BAF052AAED0EE
:1002D000012AD2D0022AD6D0032AE6D0042AEAD0B4
:1002E000EFE7DDF800E001B0704700BF48040140CF
:1002F0003004014054000020580000201400002069
:0403000018000020C1
:1001000081B0012109B2814009B208B201B0704743
:1001A40081B0074A07490A600749096841EA000221
:1001B40005490A60012203490A6001B0704700BF83
:0C01C4005A690000000401405004014092
:1001280082B01748006800F4E02114E015480190F7
:1001380023E01548019020E0144801901DE0144880
:1001480001901AE01348019017E01348019014E059
:100158000020019011E00029E8D0B1F5803FE8D0F7
:10016800B1F5003FE8D0B1F5403FE8D0B1F5802FB8
:10017800E8D0B1F5A02FE8D0EAE7019802B07047BF
:100188000404014060E31600C0C62D00808D5B00AA
:0C019800001BB70000366E01006CDC029A
:1004EC0081B0CDF800E040F2000A814609F1D80154
:1004FC0009788A453AD20C210AFB01F109EB01017A
:10050C008B460BF1080109781F2915D10BF1080155
:10051C000978CCB20BF1060109888BB20BF10401FE
:10052C0009888AB2DBF80010084691B2002210B498
:10053C0000F0FAFB01B014E00BF108010978CCB221
:10054C000BF1060109888BB20BF1040109888AB200
:10055C00DBF80010084691B2FF2210B400F0E4FB67
:10056C0001B00AF1010A5FFA8AFABFE7DDF800E090
:04057C0001B0704713
:1005800081B00122018862F30001018001B070474F
:1004D40081B003884FF63F7203EA02020280028869
:0804E4000A43028001B07047D9
:1006080081B08BB2028863F30412028001B0704794
:1006300081B00022018862F30001018001B070479F
:1005F40081B000F22C04CB439BB222881A402280A3
:0406040001B070478A
:1005900081B000F22A031A880A431A8001B070471A
:1018A80081B0CDF800E0011D0A68016808461146BC
:1018B800034AFFF70FFD0020DDF800E001B0704794
:0418C800D81F000025
:101A300081B0CDF800E00DE00846FFF753FD10E05F
:101A40000846FFF71BFD0CE00846FFF705FD08E020
:101A5000012006E00028EFD00128F1D01028F3D0B3
:0A1A6000F6E7DDF800E001B0704782
:1014E40081B0CDF800E0FFF7C7FE044A04490A6062
:1014F4000020DDF800E001B0704700BFFFFFFFFFF0
:041504001C000020A7
:10127C0081B0CDF800E084460B4A0C490A600C4A58
:10128C000C490A600C4A0D490A600D4A0D490A6066
:10129C000D48FFF725F961460C48FFF789FCDDF88E
:1012AC0000E001B0704700BFFFFFFFFF5C000020B3
:1012BC00FFFFFFFF60000020FFFFFFFF6400002026
:1012CC00FFFFFFFF68000020B42000000018004062
:100BBC0081B0CDF800E007460C463846FFF77CFCC8
:100BCC0040F280013846FFF721FD40F20001384623
:100BDC00FFF7FCFC40F200013846FFF79DFE40F2A7
:100BEC0000013846FFF700FF40F200013846FFF7DE
:100BFC0021FF40F200013846FFF7CCFD2146384674
:100C0C00FFF718FD3846FFF75DFEDDF800E001B098
:020C1C0070471F
:0E04C40081B0018841F00101018001B0704754
:1006180081B003884FF63F7203EA02020280028823
:080628000A43028001B0704793
:1005D80081B031B903884DF6FF7203EA0202028046
:0C05E80002E002880A43028001B0704764
:1009240081B0B1F5006F03D102880A43028005E06B
:1009340003884FF2FF7203EA0202028001B070479B
:1009F40081B019E0038847F6FF7203EA020202801D
:100A040019E0028842F40042028002880A4302800C
:100A140011E0028842F40042028003884BF6FF7220
:100A240003EA0202028006E00029E3D0B1F5804F18
:0A0A3400E7D00029EDD001B07047B3
:100A400081B0B1F5807F04D1028842F480720280C7
:100A500005E003884FF6FF6203EA0202028001B05C
:020A60007047DD
:1007A00081B0B1F5805F03D102880A43028005E081
:1007B00003884EF6FF7203EA0202028001B070471E
:1006400088B0CDF800E005460E4604AA104600F03A
:1006500079F904AA11462846FFF7C0FE00EE900A79
:10066000F8EE600A00EE106AB8EE400A80EE800AEA
:10067000B0EE401A01AA1046FFF7CCFEDDED010AEC
:10068000FCEE600A10EE902A92B291B2414A00EE5E
:10069000902A20EE200ABCEE400A10EE100A80B22A
:1006A00005F2080423884FF6FE7203EA0202228054
:1006B00010292ED905F208031A8842F001021A8087
:1006C000B3EE000A81EE000ABCEE400A10EE102ADA
:1006D00092B2ADF80820B3EE000AC1EE000AB3EE04
:1006E000000A81EE000ABCEE400A10EE102A92B217
:1006F00000EE102AB8EE400A70EEC00AB3EE000A0F
:1007000020EE800ABCEE400A10EE102A92B2ADF83C
:100710000A2020B90022ADF80C20284616E001245A
:100720002946242C11D263001B4AD2181288904209
:1007300008D2621E12B25300184AD2181288ADF8BD
:100740000C2002E0641CE4B2EBE70846831D0022A3
:100750001A80841D2388BDF8082043EA0202228003
:1007600000F208031A8802F001021A8000F208045D
:10077000BDF80C2013029BB2BDF80A20120192B200
:1007800013439BB222881A432280DDF800E008B0B0
:10079000704700BF00401C4638220000F0210000D6
:1003DC0081B0028802F0C00292B2920992B290B23D
:1003EC000AB900200EE0012802D10A68104609E083
:1003FC00022802D0032800D004E001F20C0212689B
:08040C001046FFE701B0704744
:1004140082B08DED010A9DED010AB5EEC00AF1EE40
:1004240010FA0ADBDDED010AB7EE000AF4EEC00AA9
:10043400F1EE10FA01DA012100E0002189B9DDEDC5
:10044400010ABFEE000AF4EEC00AF1EE10FA07DD6D
:100454009DED010AB5EEC00AF1EE10FA00DC00E0F1
:1004640008E04FF0000100EE101A00ED000A9DEDC7
:10047400010A23E001A90968C90D01F0FF017F39D0
:1004840089B2182908D99DED010A00ED000A4FF040
:10049400000100EE101A11E09DED010ABDEE400AC4
:1004A40010EE101A00EE101AB8EEC00A00ED000AA1
:1004B40050ED000A9DED010A30EE600A02B070476B
:1008D00081B002884FF6FE7102EA0101018001B089
:0208E00070475F
:10147C0081B0CDF800E0FFF7A7FE044A04490A60EA
:10148C000020DDF800E001B0704700BFFFFFFFFF58
:04149C001C00002010
:1011D40081B0CDF800E084460B4A0C490A600C4A01
:1011E4000C490A600C4A0D490A600D4A0D490A600F
:1011F4000D48FFF779F961460C48FFF7DDFCDDF88F
:1012040000E001B0704700BFFFFFFFFF5C0000205B
:10121400FFFFFFFF60000020FFFFFFFF64000020CE
:10122400FFFFFFFF68000020FC1E000000140040C8
:1014580081B0CDF800E0FFF765FE044A04490A6050
:101468000020DDF800E001B0704700BFFFFFFFFF7C
:041478001C00002034
:10112C0081B0CDF800E084460B4A0C490A600C4AA9
:10113C000C490A600C4A0D490A600D4A0D490A60B7
:10114C000D48FFF7CDF961460C48FFF731FDDDF88E
:10115C0000E001B0704700BFFFFFFFFF5C00002004
:10116C00FFFFFFFF60000020FFFFFFFF6400002077
:10117C00FFFFFFFF68000020201E00000010004051
:101C000081B0CDF800E0482208490948FFF7E0FE1E
:101C1000FFF7F6FE0120FFF7FFFEDE20FFF726FFAD
:101C2000FFF7EEFEDDF800E001B07047B41A0000E7
:041C300090210000FF
:1019D00081B0CDF800E00446054B1A700846FFF7C9
:1019E00075FD2046FFF75CFDDDF800E001B07047B3
:0419F00011000020C2
:1014CC00026803490A60011D0A6802490A607047F4
:0814DC00200000202400002084
:1014A00000F23003191D0A6805490A6003F21801A9
:1014B0000A6804490A60026803490A60704700BF6D
:0C14C000280000202C000020300000203C
:101A000044F67D77C0F2120700BF00BF7F1EFDD1F4
:081A100000BF00BF00BF7047DA
:101A180081B0CDF800E0034C2468A047DDF800E071
:081A280001B0704730000020FE
:0C19500001490870704700BF6088094220
:0C19440001490870704700BF5888094234
:0C19140001490870704700BF408809427C
:0C19080001490870704700BF548009427C
:0C18FC0001490870704700BF5C80094281
:0C19380001490870704700BF5880094248
:0C18F00001490870704700BF7C8009426D
:0C19200001490870704700BF7080094248
:0C192C0001490870704700BF4884094260
:0C13B00001490870704700BF4C840942DE
:0C13A40001490870704700BF74880942BE
:0C13C80001490870704700BF708809429E
:0C13BC0001490870704700BF6C840942B2
:0C13740001490870704700BF7C880942E6
:0C13800001490870704700BF488809420E
:0C13980001490870704700BF54800942F2
:0C138C0001490870704700BF5C800942F6
:0C13D40001490870704700BF58800942B2
:0C14340001490870704700BF7880094231
:0C14280001490870704700BF7888094235
:0C144C0001490870704700BF6880094229
:0C14400001490870704700BF6C80094231
:0C13EC0001490870704700BF7488094276
:0C13E00001490870704700BF7088094286
:101A6C0082B0CDF800E001AAF9211170802804D2CF
:101A7C0001A94A1C8021117002E001A9491C0870BF
:101A8C00FFF7C8FC01AA074909780123C8B211461F
:101A9C000222FFF7ABFCFFF7ADFFDDF800E002B070
:081AAC00704700BF110000208B
:0814200040F2000000B2704729
:1013F80082B0CDF800E040F20004ADF80440054C9E
:101408002468A047BDF90440044320B2DDF800E099
:0814180002B070472000002023
:1012580081B0CDF800E008B413460A46C1B204488C
:10126800FFF79EFE01B0DDF800E001B0704700BF57
:041278000020004012
:100FA80087B0CDF800E08DF8041001469DF80400E4
:100FB80005920693079C07944C4CA1420AD14C4DCC
:100FC8002C6803942C46246804944A4C25684A4C9F
:100FD800256028E0494CA1420AD1494D2C68039468
:100FE8002C4624680494474C2568434C25601AE035
:100FF800454CA1420AD1454D2C6803942C462468DF
:101008000494434C25683C4C25600CE0414CA142BB
:1010180009D1414D2C6803942C46246804943F4C14
:101028002568354C256001910291C1B20298FFF7FD
:10103800B3FA01993A4C247854B901910846012130
:10104800FFF70CFD019908B101204BE00D461FE0A8
:1010580001250C8865F304140C8008460588C5F33F
:1010680080046CB1049C54B1039C2CB90720224C19
:101078002468A047012035E0039C641E0394EDE733
:10108800048844F0020404800025254C2570054698
:1010980000262A463146069CA14214D2059C6418B3
:1010A800247801920291E1B21046FFF785FB02997C
:1010B800019A20B11046FFF711FC012012E04C1CE8
:1010C80026463146E7E7079C012C07D11046FFF773
:1010D80005FC002801D0012004E002E00125104CA5
:1010E80025700020DDF800E007B0704700200040C0
:1010F80000000020380000203400002000240040B8
:10110800040000203C0000200028004008000020C7
:1011180040000020002C00400C000020440000206B
:041128001000002093
:1005A00081B000F2140212888A420FD000F21602C3
:1005B00012888A420AD000F2180212888A4205D0B4
:1005C00000F21A0212888A4200D000E002E000F233
:0805D0002002118001B0704708
:100A640085B0CDF800E0CCB20146464A91420AD1A5
:100A7400454B1A6803921A4612680492434A136853
:100A8400434A136028E0434A91420AD1424B1A6810
:100A940003921A4612680492404A13683C4A13604F
:100AA4001AE03F4A91420AD13E4B1A6803921A4611
:100AB400126804923C4A1368354A13600CE03B4ABE
:100AC400914209D13A4B1A6803921A461268049269
:100AD400384A13682E4A13608DF804400291084680
:100AE400FFF70EFC02999DF8044008B1012044E090
:100AF400E3B20A8863F304120A800A8842F002020D
:100B04000A80012C1CD1084600F22C021388C3F37E
:100B140040026AB9049A52B1039A2AB906201C4CBD
:100B24002468A047012028E0039A521E0392EBE7B1
:100B340000F22C040023228863F3410222801BE08C
:100B4400084600F22C021388C3F300026AB9049A1F
:100B540052B1039A2AB906200D4C2468A0470120FB
:100B64000BE0039A521E0392EBE700F22C040023DD
:100B7400228863F3000222800020DDF800E005B043
:100B8400704700BF00200040000000203800002013
:100B94003400002000240040040000203C00002019
:100BA400002800400800002040000020002C0040E5
:080BB4000C00002044000020A9
:1003040083B0CDF800E0274988420AD1264A116813
:10031400019111460968029124490A6824490A6036
:1003240028E0244988420AD1234A116801911146E0
:100334000968029121490A681D490A601AE02049A6
:1003440088420AD11F4A1168019111460968029135
:100354001D490A6816490A600CE01C49884209D103
:100364001B4A1168019111460968029119490A68EA
:100374000F490A6003461846FFF7C8FE68B9029998
:1003840051B1019929B90520094C2468A0470120DD
:1003940004E00199491E0191EDE70020DDF800E039
:1003A40003B0704700200040000000203800002007
:1003B4003400002000240040040000203C00002001
:1003C400002800400800002040000020002C0040CD
:0803D4000C0000204400002091
:1001100081B000F208010A88C2F3001181F00101E8
:08012000C9B2C8B201B070477A
:1007C00083B0CDF800E0354A90420AD1344B1A6824
:1007D00001921A4612680292324A1368324A136032
:1007E00028E0324A90420AD1314B1A6801921A46E7
:1007F000126802922F4A13682B4A13601AE02E4A9D
:1008000090420AD12D4B1A6801921A461268029240
:100810002B4A1368244A13600CE02A4A904209D1FB
:10082000294B1A6801921A4612680292274A1368E5
:100830001D4A136000F22C021388C3F3401232B138
:1008400000F22C040023228863F34512228000F278
:100850000E02118000F22C021388C3F340026AB921
:10086000029A52B1019A2AB904200F4C2468A04779
:1008700001200FE0019A521E0192EBE700F22C04D6
:100880000023228863F34102228000F22C021388A5
:10089000C3F34010DDF800E003B0704700200040D3
:1008A0000000002038000020340000200024004018
:1008B000040000203C000020002800400800002028
:1008C00040000020002C00400C00002044000020CC
:1008E40081B0CDF800E00122018862F38201018029
:1008F400FFF706FD08B1012000E00020DDF800E06C
:0409040001B0704787
:10118C0081B0CDF800E008B413460A46C1B2044859
:10119C00FFF704FF01B0DDF800E001B0704700BFBD
:0411AC0000240040DB
:1011B00081B0CDF800E008B413460A46C1B2044835
:1011C000FFF7F2FE01B0DDF800E001B0704700BFAC
:0411D00000280040B3
:1012340081B0CDF800E008B413460A46C1B20448B0
:10124400FFF7B0FE01B0DDF800E001B0704700BF69
:04125400002C00402A
:101AC00081B0CDF800E0EE20FFF7D0FF45F2FD0732
:101AD000C0F2252700BF00BF7F1EFDD100BF00BFA1
:101AE00000BFDE20FFF7C2FF45F2FD07C0F2252749
:101AF00000BF00BF7F1EFDD100BF00BF00BFCF20D1
:101B0000FFF7B4FF45F2FD07C0F2252700BF00BF75
:101B10007F1EFDD100BF00BF00BFBF20FFF7A6FFA3
:101B200045F2FD07C0F2252700BF00BF7F1EFDD193
:101B300000BF00BF00BFCF20FFF798FF45F2FD07B1
:101B4000C0F2252700BF00BF7F1EFDD100BF00BF30
:101B500000BFDE20FFF78AFF45F2FD07C0F2252710
:101B600000BF00BF7F1EFDD100BF00BF00BFDDF87A
:061B700000E001B0704727
:101B780081B01CF8019B0BF8019BBBEB0A0FF8D155
:041B880001B07047F1
:101CDC0083B0CDF800E0374B374C384D384E394F88
:101CEC00394845F680213948018004F00700052861
:101CFC0004D004F07000502800D00BE0012252B246
:101D0C0033480280002149B23248018032480280B7
:101D1C0032480180802132480160019502961E46AE
:101D2C0025463A46029B019C2E48006800F48070C0
:101D3C0000B1F9E72C492D48016001951146324656
:101D4C001D46019B2748006800F4807000B1F9E73C
:101D5C002748016027480160274928480160284826
:101D6C00026028480360200D00F0070028B944F0F9
:101D7C000301254801602A4610E044F4803040F00D
:101D8C000301214801602A462048006830B1FFF762
:101D9C00F9FE012149B21E480160F5E70021174800
:101DAC00016042F4B44109480180DDF800E003B061
:101DBC00704700BF00000500330000000300010065
:101DCC00840000000010000080BB00000C480040A4
:101DDC004CA509428CA5094248A5094288A509428F
:101DEC00143004E00400014001005A690000014075
:101DFC0010100140141001405A6900000004014009
:101E0C0004040140080401400C04014004892042F0
:041E1C00048A2042D2
:101B900040F20907C0F2000700BF00BF7F1EFDD161
:081BA00000BF00BF00BF704749
:101CA40081B002490248016001B0704780BB000066
:041CB40050000020BC
:081C9C0081B0FEE701B07047C2
:101C700081B04EF68850CEF20000016841F4700148
:101C8000016000BF00BF00BF00BFF1EE100A40F4CA
:0A1C90004000E1EE100A01B07047B9
:1022940000B5DFF824B0DFF824A0DFF824C0FFF78E
:1022A40069FCDFF820B0DFF820A0DFF820C0FFF7DA
:1022B40061FC00BD704700BF000000201100002039
:1022C40080220000140000201C000020F4190000EB
:1023300000B5DFF810B0DFF810A0FFF77BFC00BDA0
:0C234000704700BF000000206C0000206F
:0419F40010270000B8
:0419F80000366E0146
:0419FC00A0860100C0
:081AB4008D110000FFFFFFFF90
:101E2000004C00400400050500000000004C00408C
:101E30000800050500000000000000000000000090
:101E40000000000000000000000000000000000092
:101E50000000000000000000000000000000000082
:101E60000000000000000000000000000000000072
:101E70000000000000000000000000000000000062
:101E80000000000000000000000000000000000052
:101E90000000000000000000000000000000000042
:101EA0000000000000000000000000000000000032
:101EB0000000000000000000000000000000000022
:101EC0000000000000000000000000000000000012
:101ED0000000000000000000000000000000000002
:101EE00000000000000000000000000000000000F2
:0C1EF000000000000000000002000000E4
:101EFC00004C00400004050500000000004C0040B0
:101F0C0000080505000000000000000000000000B3
:101F1C0000000000000000000000000000000000B5
:101F2C0000000000000000000000000000000000A5
:101F3C000000000000000000000000000000000095
:101F4C000000000000000000000000000000000085
:101F5C000000000000000000000000000000000075
:101F6C000000000000000000000000000000000065
:101F7C000000000000000000000000000000000055
:101F8C000000000000000000000000000000000045
:101F9C000000000000000000000000000000000035
:101FAC000000000000000000000000000000000025
:101FBC000000000000000000000000000000000015
:0C1FCC0000000000000000000200000007
:101FD800404C00400010000500000000404C00404C
:101FE80000200005000000000000000000000000C4
:101FF80000000000000000000000000000000000D9
:1020080000000000000000000000000000000000C8
:1020180000000000000000000000000000000000B8
:1020280000000000000000000000000000000000A8
:102038000000000000000000000000000000000098
:102048000000000000000000000000000000000088
:102058000000000000000000000000000000000078
:102068000000000000000000000000000000000068
:102078000000000000000000000000000000000058
:102088000000000000000000000000000000000048
:102098000000000000000000000000000000000038
:0C20A8000000000000000000020000002A
:1020B400204C00400400050500000000204C0040B6
:1020C40008000505000000000000000000000000FA
:1020D40000000000000000000000000000000000FC
:1020E40000000000000000000000000000000000EC
:1020F40000000000000000000000000000000000DC
:1021040000000000000000000000000000000000CB
:1021140000000000000000000000000000000000BB
:1021240000000000000000000000000000000000AB
:10213400000000000000000000000000000000009B
:10214400000000000000000000000000000000008B
:10215400000000000000000000000000000000007B
:10216400000000000000000000000000000000006B
:10217400000000000000000000000000000000005B
:0C2184000000000000000000020000004D
:102190005119000045190000151900000919000027
:1021A000FD18000039190000F11800002119000085
:1021B0002D190000B1130000A5130000C913000081
:1021C000FFFFFFFFFFFFFFFFFFFFFFFFFFFFFFFF1F
:1021D000FFFFFFFFFFFFFFFFFFFFFFFFFFFFFFFF0F
:1021E000FFFFFFFFFFFFFFFFFFFFFFFFFFFFFFFFFF
:1021F000000001000200040008001000200011008F
:10220000210022004400250049004A0052009200AB
:1022100053005500AA006B00AD00B500B600D60013
:10222000B700BB00DD00ED00EE00BF00DF00EF00F7
:08223000F700FB00FD00FE00B9
:1022380000001102CB024303E903E4049605860675
:102248006308B008C709B80B070DF70DA90EA30F4F
:10225800BE101A118A13531673176E1820190B1A09
:10226800591BEB1B4F1DB51E441F8D2010217C21CF
:082278002F222C23D22348245D
:04228000000000005A
:042284000000000056
:042288000000000052
:04228C00000000004E
:01229000004D
:00000001FF
