:10000000FCFF022039200000F11F0000F11F00005A
:10001000F11F0000F11F0000F11F0000F11F0000A0
:10002000F11F0000F11F0000F11F0000F11F000090
:10003000F11F0000F11F0000F11F0000F11F000080
:10004000F11F0000F11F0000F11F0000F11F000070
:10005000F11F0000F11F0000F11F0000F11F000060
:10006000F11F0000F11F0000F11F0000F11F000050
:10007000F11F0000F11F0000F11F0000F11F000040
:10008000F11F0000F11F0000F11F0000F11F000030
:10009000F11F0000F11F0000F11F0000F11F000020
:1000A000F11F0000F11F0000F11F0000F11F000010
:1000B000F11F0000F11F0000F11F0000F11F000000
:1000C000F11F0000F11F0000F11F0000F11F0000F0
:1000D000F11F0000F11F0000F11F0000F11F0000E0
:1000E000F11F0000F11F0000F11F0000F11F0000D0
:1000F000F11F0000F11F0000F11F0000F11F0000C0
:10010000F11F0000F11F0000F11F0000F11F0000AF
:10011000F11F0000F11F0000F11F0000F11F00009F
:10012000F11F0000F11F0000F11F0000F11F00008F
:10013000F11F0000F11F0000F11F0000F11F00007F
:10014000F11F0000F11F0000F11F0000F11F00006F
:10015000F11F0000F11F0000F11F0000F11F00005F
:10016000F11F0000F11F0000F11F0000F11F00004F
:10017000F11F0000F11F0000F11F0000F11F00003F
:10018000F11F0000F11F0000F11F0000F11F00002F
:08019000F11F0000F11F000047
:1020380000F010F8FFF7DCFF00F0C0FCFFF7EEFF40
:1020480000F07CFCFFF7A8FFFFF78CFFFFF706FF07
:04205800FCE7FEE7BC
:101F300081B04FF000094FF0000CBDEB0A0F04DC3C
:101F4000BDEB0B0F01DBD446EA464BF8049BBBEB21
:101F50000A0FFAD1BCEB0A0F05DDE246D9F800B052
:0A1F60000BF1040BF1E701B070472C
:101FA00081B0CDF800E0002200210020FFF7A0FE64
:101FB000012201210020FFF79BFE0C480146002072
:101FC000FFF7C0FE42F280510120FFF715FF40F6F7
:101FD000FE07C0F23D0700BF00BF7F1EFDD100BF5E
:101FE00000BF00BFDDF800E001B0704740290000ED
:101CF00081B0CDF800E05FFA81F85FFA82F916E072
:101D00005FFA89F15FFA88F0FFF714FC16E05FFADA
:101D100089F15FFA88F0FFF70DFD0FE05FFA89F1B6
:101D20005FFA88F0FFF75CFE08E0012006E000287B
:101D3000E6D00128EBD00228F0D0F6E7DDF800E08D
:041D400001B0704737
:1015340081B0CDF800E0A9E0012905D14FF0040104
:101544006548FFF7E7FE04E04FF004016348FFF746
:10155400D5FEBBE0012905D14FF400615E48FFF7D9
:10156400D9FE04E04FF400615C48FFF7C7FEADE02C
:10157400012905D14FF010015948FFF7CBFE04E0D3
:101584004FF010015748FFF7B9FE9FE0012905D13C
:101594004FF020015248FFF7BDFE04E04FF0200158
:1015A4005048FFF7ABFE91E0012905D14FF08001CF
:1015B4004B48FFF7AFFE04E04FF080014948FFF7C6
:1015C4009DFE83E0012905D14FF040014448FFF717
:1015D400A1FE04E04FF040014248FFF78FFE75E0A2
:1015E400012905D14FF480613F48FFF793FE04E0E1
:1015F4004FF480613D48FFF781FE67E0012905D182
:101604004FF400513448FFF785FE04E04FF40051D5
:101614003248FFF773FE59E0012905D14FF0040168
:101624003348FFF777FE04E04FF004013148FFF739
:1016340065FE4BE0012905D14FF008012C48FFF766
:1016440069FE04E04FF008012A48FFF757FE3DE029
:10165400012905D14FF480712548FFF75BFE04E0B2
:101664004FF480712348FFF749FE2FE0012905D18B
:101674004FF400711E48FFF74DFE04E04FF4007173
:101684001C48FFF73BFE21E0012020E000283FF446
:1016940053AF01283FF45EAF02283FF469AF03283B
:1016A4003FF474AF04283FF47FAF05283FF48AAFBA
:1016B40006283FF495AF0728A0D00828ACD0092805
:1016C400B8D00A28C4D00B28D0D0DDE70020DDF83C
:1016D40000E001B0704700BF50F00F4040F00F40F1
:1016E40090F00F4080F00F4010F00F4000F00F40DA
:0816F400D0F00F40C0F00F40E0
:1013180081B0CDF800E0034AFFF7EEFDDDF800E00C
:0813280001B07047040102004E
:100F000081B0CDF800E0FFF751FCDDF800E001B062
:020F1000704728
:1007AC0083B0CDF800E006460C4615463046FFF700
:1007BC0029FE40F2FF1306EA0300800900262246B8
:1007CC002946202E39D24FF0010303FA06F402EA2F
:1007DC0004031F46A3422ED104031A4B1C19B30069
:1007EC00E51801952C68184B04EA03032B60174B92
:1007FC0001EA0304019B1B6843EA0404019B1C608F
:10080C0001F48033B3F5803F15D08401104B1B19D4
:10081C001433029301F400333BB1FC43029B1B687D
:10082C0003EA0404029B1C6005E0029B1B6843EA7C
:10083C000704029B1C60761CC3E7DDF800E003B0E4
:10084C00704700BF009004400000FFFFFFFF000056
:04085C0000F00F4059
:1004100081B040F2FF1100EA01018909084600F2AB
:1004200009024FF0010101FA02F20449096841EAA8
:10043000020202490A6001B0704700BF38800440E0
:1013000081B0CDF800E0034AFFF7FAFDDDF800E018
:0813100001B070470401040064
:1017340081B0CDF800E0A9E0012905D14FF00801FE
:101744006548FFF7E7FD04E04FF008016348FFF741
:10175400D5FDBBE0012905D14FF400215E48FFF718
:10176400D9FD04E04FF400215C48FFF7C7FDADE06C
:10177400012905D14FF008015948FFF7CBFD04E0DA
:101784004FF008015748FFF7B9FD9FE0012905D143
:101794004FF020015248FFF7BDFD04E04FF0200157
:1017A4005048FFF7ABFD91E0012905D14FF08001CE
:1017B4004B48FFF7AFFD04E04FF080014948FFF7C5
:1017C4009DFD83E0012905D14FF040014448FFF716
:1017D400A1FD04E04FF040014248FFF78FFD75E0A2
:1017E400012905D14FF400613F48FFF793FD04E060
:1017F4004FF400613D48FFF781FD67E0012905D101
:101804004FF480713448FFF785FD04E04FF4807194
:101814003248FFF773FD59E0012905D14FF48031B7
:101824002F48FFF777FD04E04FF480312D48FFF790
:1018340065FD4BE0012905D14FF400312848FFF73D
:1018440069FD04E04FF400312648FFF757FD3DE001
:10185400012905D14FF480712548FFF75BFD04E0B1
:101864004FF480712348FFF749FD2FE0012905D18A
:101874004FF400711E48FFF74DFD04E04FF4007172
:101884001C48FFF73BFD21E0012020E000283FF445
:1018940053AF01283FF45EAF02283FF469AF032839
:1018A4003FF474AF04283FF47FAF05283FF48AAFB8
:1018B40006283FF495AF0728A0D00828ACD0092803
:1018C400B8D00A28C4D00B28D0D0DDE70020DDF83A
:1018D40000E001B0704700BF50F00F4040F00F40EF
:1018E40090F00F4080F00F4010F00F4000F00F40D8
:0818F400D0F00F40C0F00F40DE
:1019E00081B0CDF800E0A9E0012905D14FF0400118
:1019F0006548FFF791FC04E04FF040016348FFF7B2
:101A00007FFCBBE0012905D14FF480615E48FFF700
:101A100083FC04E04FF480615C48FFF771FCADE0AB
:101A2000012905D14FF004015948FFF775FC04E086
:101A30004FF004015748FFF763FC9FE0012905D1EF
:101A40004FF020015248FFF767FC04E04FF02001FF
:101A50005048FFF755FC91E0012905D14FF0800176
:101A60004B48FFF759FC04E04FF080014948FFF76D
:101A700047FC83E0012905D14FF040014448FFF7BE
:101A80004BFC04E04FF040014248FFF739FC75E0A1
:101A9000012905D14FF010013F48FFF73DFC04E05C
:101AA0004FF010013D48FFF72BFC67E0012905D1FD
:101AB0004FF080013448FFF72FFC04E04FF0800125
:101AC0003248FFF71DFC59E0012905D14FF4803160
:101AD0002F48FFF721FC04E04FF480312D48FFF739
:101AE0000FFC4BE0012905D14FF400312848FFF7E6
:101AF00013FC04E04FF400312648FFF701FC3DE001
:101B0000012905D14FF480712548FFF705FC04E059
:101B10004FF480712348FFF7F3FB2FE0012905D133
:101B20004FF400711E48FFF7F7FB04E04FF400711B
:101B30001C48FFF7E5FB21E0012020E000283FF4EE
:101B400053AF01283FF45EAF02283FF469AF03288A
:101B50003FF474AF04283FF47FAF05283FF48AAF09
:101B600006283FF495AF0728A0D00828ACD0092854
:101B7000B8D00A28C4D00B28D0D0DDE70020DDF88B
:101B800000E001B0704700BF50F00F4040F00F4040
:101B900090F00F4080F00F4010F00F4000F00F4029
:081BA000D0F00F40C0F00F402F
:101D440081B0CDF800E00DE00846FFF7F3FD10E0A8
:101D54000846FFF711FE0CE00846FFF71DFE08E0F9
:101D6400012006E00028EFD00128F1D00228F3D0AA
:0A1D7400F6E7DDF800E001B070476B
:1019380081B0CDF800E0016808460449FFF79EFC35
:101948000020DDF800E001B0704700BFF02700007C
:1012840081B0CDF800E00A4601460348FFF750FE5E
:0C129400DDF800E001B07047006006408B
:100F34008AB0CDF800E0504B984210D100244F4BBA
:100F44001C60012464B24E4B1C604E4C4E4B1C6022
:100F54004E4C4F4B1C604F4C4F4B1C6026E04F4B8C
:100F6400984210D100244E4B1C60012464B24D4BB6
:100F74001C604D4C444B1C604C4C454B1C604C4C11
:100F8400454B1C6012E04B4B98420FD100244A4B56
:100F94001C60012464B2494B1C60494C3A4B1C60F0
:100FA400484C3B4B1C60484C3B4B1C6001910290ED
:100FB4001046FFF7C1FA06AB1846FFF77DFA029810
:100FC40001994FF0FF39002740F200080022022A5D
:100FD40037D8B9F1000F34D001231BB203FA02F55C
:100FE4002DB20026322E28D2F400384B1B191B1DBB
:100FF4001B6805FB03F4079BB3FBF4F304939942CA
:1010040003D9049BCB1A039302E0049B5B1A03935A
:10101400039B0593039B4B450BD21746F4002B4BC4
:101024001B19D3F80080059C059B002B00D105E01B
:1010340000E04C46761CA146D4E74C46521CA1461F
:10104400C5E7441CBB0143EA08032370851C012443
:101054002B7864F3C7132B70851C01242B7864F35D
:1010640086132B70851D01242B7864F345132B7094
:10107400DDF800E00AB07047006006400000FF1F82
:1010840098069042051100003C00FF1FFFFFFFFF80
:101094004000FF1F611200004400FF1F0070064063
:1010A4000400FF1F9C06904295110000FFFFFFFF04
:1010B400B912000000600E400800FF1F180590429E
:1010C4007D110000FFFFFFFFDD12000088250000F6
:1004BC0081B0CDF800E00446FFF7F4FF40F2E831DC
:1004CC0000FB01F3194909680A0F1849096801F082
:1004DC007061090EC8B21549096801F47001090D63
:1004EC00CDB21249096801F47021090CCEB2D1B217
:1004FC00491C09B259430F462360221D411C09B205
:10050C00B7FBF1F1116004F20802691C09B2B7FBE8
:10051C00F1F1116004F20C02711C09B2B7FBF1F19C
:10052C001160DDF800E001B0704700BF448004406A
:0C04B00001480068704700BF2C00FF1FCF
:10053C0081B0CDF800E040F2000C83464FEA8C010C
:10054C000BEB01010968B1F1FF3F12D00BF1340143
:10055C004FEA8C03C91809680A460BEB03010968BA
:10056C0008461146FFF772FF0CF1010C1FFA8CFCC8
:0A057C00E4E7DDF800E001B070478D
:1004580082B0CDF800E080464FEA581202F0070259
:10046800914608F01F04A24693010D4AD3184FF095
:100478000102A240019218460A46019900F03CFD8B
:100488004FEA0933074AD3184FEA8A029C1808F43E
:10049800E06322681A432260DDF800E002B070478A
:0804A80000F00F400090044039
:10197C0081B0CDF800E0016808460449FFF77CFC13
:10198C000020DDF800E001B0704700BFF027000038
:10199C0081B0CDF800E0016808460449FFF76CFC03
:1019AC000020DDF800E001B0704700BFF027000018
:101DF80081B0CDF800E011E00846FFF7A9FD16E034
:101E08000846FFF7D7FD12E00846FFF7DDFE0EE0B3
:101E18000846FFF7EBFE0AE0012008E00028EBD0B7
:101E28000128EDD00228EFD01028F1D0F4E7DDF832
:061E380000E001B070475C
:1019580081B0CDF800E0FFF735FD044A04490A607C
:101968000020DDF800E001B0704700BFFFFFFFFF77
:041978000C00FF1F41
:1013CC0081B0CDF800E003460A48FFF759FB0A4A02
:1013DC0040F2000104B402B440F20002194640F29B
:1013EC0000030448FFF71CFB02B0DDF800E001B07D
:0C13FC00704700BF00C00640182700002A
:100A8C0081B0304988420CD12F4A30490A60304A33
:100A9C0030490A60304A31490A60314A31490A60AA
:100AAC004EE0314988420CD1304A28490A60304A1C
:100ABC0028490A602F4A29490A602F4A29490A60A5
:100ACC003EE02E4988420CD12D4A20490A602D4A1D
:100ADC0020490A602C4A21490A602C4A21490A60A3
:100AEC002EE02B4988420CD12A4A18490A602A4A1E
:100AFC0018490A60294A19490A60294A19490A60A1
:100B0C001EE0284988420CD1274A10490A60274A1E
:100B1C0010490A60264A11490A60264A11490A609E
:100B2C000EE0254988420BD1244A08490A60244A20
:100B3C0008490A60234A09490A60234A09490A609C
:100B4C0001B0704700A00640FFFFFFFF4800FF1FE9
:100B5C00F51100004C00FF1FC51100005000FF1FD5
:100B6C00AD1100005400FF1F00B00640FFFFFFFF57
:100B7C001D110000DD110000ED10000000C006404A
:100B8C00FFFFFFFF651100004D1100003511000043
:100B9C0000D00640FFFFFFFF9D130000B5130000BF
:100BAC008513000000A00E40FFFFFFFF391400006A
:100BBC00091400002114000000B00E40FFFFFFFFDD
:0C0BCC0031130000A112000049120000CB
:100A2C0085B0CDF800E001900291ADF80C20ADF846
:100A3C001030BDF81440ADF814400698FFF778FD5F
:100A4C000198FFF79BFD02990198FFF7F7FDBDF8A0
:100A5C000C100198FFF72CFEBDF810100198FFF751
:100A6C0037FEBDF814100198FFF7D2FD0198FFF77F
:100A7C00D5FD0198FFF7DAFDDDF800E005B0704711
:1005880081B01849884204D1012252B216490A6042
:1005980026E01649884204D1012252B214490A6061
:1005A8001EE01449884204D1012252B212490A605D
:1005B80016E01249884204D1012252B210490A6059
:1005C8000EE01049884204D1012252B20E490A6055
:1005D80006E00E49884203D1012252B20C490A6052
:1005E80001B0704700A00640A806904200B006403F
:1005F800AC06904200C00640B006904200D00640CB
:10060800B406904200A00E402805904200B00E406B
:040618002C059042DB
:1006480085B0CDF800E08046894601AA1046FFF73C
:1006580031FF164A904503D0154A904500D001E075
:10066800019800E002984FEA0912B0FBF2F291B249
:1006780092B2130A9BB298F800201A4388F8002017
:1006880008F10103CAB21A7043014FEA0912B3FB19
:10069800F2F34A0192B29A1AD0B208F10A031A7810
:1006A80002431A70DDF800E005B0704700A006406C
:0406B80000B0064048
:1006BC0081B0841C23784FF6EF7212B203EA020267
:1006CC002270841C0B0122781A43227001B07047EF
:1006DC0081B001F0020262B1841C01F002032278A5
:1006EC001A432270841C01F0010322781A432270F1
:1006FC0007E0841C23784FF6FD7212B203EA020263
:06070C00227001B07047ED
:0C061C0081B002780A43027001B0704700
:1006280081B0C21C117841F00401117001B070470B
:1006380081B0C21C117841F00801117001B07047F7
:1019BC0081B0CDF800E0FFF7C1FC044A04490A608D
:1019CC000020DDF800E001B0704700BFFFFFFFFF13
:0419DC000C00FF1FDD
:1013480081B0CDF800E003460A48FFF79BFB0A4A44
:1013580040F2000104B402B440F20002194640F21F
:1013680000030448FFF75EFB02B0DDF800E001B0BF
:0C137800704700BF00D006408427000032
:101BD00081B0CDF800E0FFF7B7FB044A04490A6082
:101BE0000020DDF800E001B0704700BFFFFFFFFFFD
:041BF0000C00FF1FC7
:101BF40081B0CDF800E0FFF707FB044A04490A600E
:101C04000020DDF800E001B0704700BFFFFFFFFFD8
:041C14000C00FF1FA2
:10120C0081B0CDF800E003460A48FFF739FC0A4AE2
:10121C0040F2000104B402B440F20002194640F25C
:10122C0000030448FFF7FCFB02B0DDF800E001B05E
:0C123C00704700BF00A006405C280000C6
:101F6C0081B0CDF800E0482208490948FFF762FF2C
:101F7C00FFF700FF0120FFF709FFDE20FFF712FF3C
:101F8C00FFF7F8FEDDF800E001B0704728290000EB
:041F9C00C828000051
:101E400081B0CDF800E00446054B1A700846FFF754
:101E5000ABFE2046FFF758FCDDF800E001B070470C
:041E60001800FF1F48
:101BA800026806490A60011D0A6805490A6000F2D0
:101BB80008010A6803490A60704700BF1400FF1F44
:081BC8001000FF1F2800FF1FA1
:1017080000F23003191D0A6805490A6003F218013E
:101718000A6804490A60026803490A60704700BF02
:0C1728001C00FF1F2000FF1F2400FF1FFB
:101D800040F6FE07C0F23D0700BF00BF7F1EFDD139
:081D900000BF00BF00BF704757
:101D980081B0CDF800E0034C2468A047DDF800E0EE
:081DA80001B070472400FF1F89
:0C16FC0001490860704700BF0808FE4369
:0C18FC0001490860704700BF2C08FE4343
:0C19200001490860704700BF1010FE4332
:0C192C0001490860704700BF1410FE4322
:0C19080001490860704700BF1C10FE433E
:0C19140001490860704700BF1810FE4336
:0C1C180001490860704700BF2800FE432F
:0C1CB40001490860704700BF3408FE437F
:0C1CC00001490860704700BF0818FE438F
:0C1CA80001490860704700BF0C18FE43A3
:0C1C900001490860704700BF2018FE43A7
:0C1C9C0001490860704700BF2418FE4397
:0C1CE40001490860704700BF0C08FE4377
:0C1CCC0001490860704700BF4C08FE434F
:0C1CD80001490860704700BF0C10FE437B
:0C1C3C0001490860704700BF1410FE430F
:0C1C480001490860704700BF1C10FE43FB
:0C1C240001490860704700BF1810FE4323
:0C1C300001490860704700BF2C00FE4313
:0C1C540001490860704700BF2008FE43F3
:0C1C780001490860704700BF4010FE43A7
:0C1C840001490860704700BF4410FE4397
:0C1C600001490860704700BF2018FE43D7
:0C1C6C0001490860704700BF2418FE43C7
:0C15280001490860704700BF1808FE432E
:0C14740001490860704700BF2808FE43D3
:0C14800001490860704700BF0810FE43DF
:0C148C0001490860704700BF1410FE43C7
:0C14500001490860704700BF1C10FE43FB
:0C145C0001490860704700BF1810FE43F3
:0C14680001490860704700BF1000FE43FF
:0C14980001490860704700BF1C08FE43BB
:0C15040001490860704700BF4010FE4322
:0C15100001490860704700BF4410FE4312
:0C151C0001490860704700BF2018FE4322
:0C14A40001490860704700BF2418FE4397
:101DB00082B0CDF800E001AAF9211170802804D288
:101DC00001A94A1C8021117002E001A9491C087078
:101DD000FFF76EFB01AA074909780123C8B2114633
:101DE0000222FFF77BFBFFF7CBFFDDF800E002B03C
:081DF000704700BF1800FF1F3F
:1014B00082B0CDF800E040F20004ADF80440064CE4
:1014C0002468A047BDF9041041EA000000B2DDF82D
:0C14D00000E002B0704700BF1400FF1FD6
:1011040081B0CDF800E00348FFF764FDDDF800E0AE
:0811140001B0704700600640C5
:100BD80084B0CDF800E04FF000024349884205D1C7
:100BE80042490C6842490968039115E04149884225
:100BF80006D141490A6841490968039114460BE046
:100C08003F49884206D13F490A683F49096803912C
:100C1800114600E011460C4601940290FFF776FD5C
:100C28000298019C831C0122197862F345111970FE
:100C3800C11C0A78C2F30011C9B1C31C012219787A
:100C480062F304111970811D0A78C2F3001129B1E9
:100C5800831D0122197862F304111970C31C012243
:100C6800197862F3410119704FF6FF7038E0234696
:100C7800019404460198E11C0A78C2F3400151B975
:100C880040B123B90520039CA047012028E05A1E43
:100C98001346FFE7EFE7A11D0A78C2F3001129B157
:100CA800A31D0122197862F304111970E31C0122B3
:100CB800197862F34101197005462346D91C0A7850
:100CC800C2F3400159B148B125B90520039CA0479A
:100CD800012005E0691E0A461546FFE7EEE70020F9
:100CE800DDF800E004B07047006006400000FF1F18
:100CF8003000FF1F007006400400FF1F3400FF1F74
:0C0D080000600E400800FF1F3800FF1FB5
:1007140082B0CDF800E04FF000021A49884205D1BA
:1007240019490B6819490968019115E0184988426B
:1007340006D118490A6818490968019113460BE063
:100744001649884206D116490A6816490968019172
:10075400114600E011460B461D4604462046FFF7AD
:100764006DFE50B943B11DB90720019CA04704E0B8
:10077400691E08460546FFE7F0E7DDF800E002B031
:10078400704700BF006006400000FF1F3000FF1FDD
:10079400007006400400FF1F3400FF1F00600E407D
:0807A4000800FF1F3800FF1FD1
:1004400081B0C11C0A78C2F3401181F00101C9B228
:06045000C8B201B07047C4
:1011940081B0CDF800E00348FFF71CFDDDF800E066
:0811A40001B070470070064025
:10117C0081B0CDF800E00348FFF728FDDDF800E072
:08118C0001B0704700600E4045
:1011F40081B0CDF800E00348FFF76AFFDDF800E0B6
:0812040001B0704700A0064094
:1010D40081B0011D0A78C2F3401101B9F9E7C11DBD
:0810E4000978C8B201B07047A1
:1011C40081B0CDF800E00348FFF7AAFEDDF800E0A7
:0811D40001B0704700A00640C5
:0E0F240081B0011D0978C1F3401001B0704783
:1011AC0081B0CDF800E00348FFF7AEFEDDF800E0BB
:0811BC0001B0704700A00640DD
:0E0F140081B0011D0978C1F3801001B0704753
:10111C0081B0CDF800E00348FFF7D6FFDDF800E022
:08112C0001B0704700B006405D
:1011DC0081B0CDF800E00348FFF79EFEDDF800E09B
:0811EC0001B0704700B006409D
:1010EC0081B0CDF800E00348FFF70EFFDDF800E01B
:0810FC0001B0704700B006408E
:1011640081B0CDF800E00348FFF7B2FFDDF800E0FE
:0811740001B0704700C0064005
:10114C0081B0CDF800E00348FFF7E6FEDDF800E0E3
:08115C0001B0704700C006401D
:1011340081B0CDF800E00348FFF7EAFEDDF800E0F7
:0811440001B0704700C0064035
:10139C0081B0CDF800E00348FFF796FEDDF800E0E1
:0813AC0001B0704700D00640BB
:1013B40081B0CDF800E00348FFF7B2FDDDF800E0AE
:0813C40001B0704700D00640A3
:1013840081B0CDF800E00348FFF7C2FDDDF800E0CE
:0813940001B0704700D00640D3
:1014380081B0CDF800E00348FFF748FEDDF800E092
:0814480001B0704700A00E4046
:1014080081B0CDF800E00348FFF788FDDDF800E083
:0814180001B0704700A00E4076
:1014200081B0CDF800E00348FFF774FDDDF800E07F
:0814300001B0704700A00E405E
:1013300081B0CDF800E00348FFF7CCFEDDF800E017
:0813400001B0704700B00E403F
:1012A00081B0CDF800E00348FFF73CFEDDF800E038
:0812B00001B0704700B00E40D0
:1012480081B0CDF800E00348FFF760FEDDF800E06C
:0812580001B0704700B00E4028
:1014DC0082B0CDF800E040F20004ADF80440054CB9
:1014EC002468A047BDF90440044320B2DDF800E0B5
:0814FC0002B070471000FF1F51
:1012600081B0CDF800E008B413460A46C1B2044884
:10127000FFF750FD01B0DDF800E001B0704700BF9E
:0412800000600640C4
:100D140087B0CDF800E005920246C8B20693079C5E
:100D240007944FF000016C4CA24206D16B4C26682C
:100D34006B4C24680494314614E06A4CA24205D1F9
:100D4400694C2668694C246804940AE0684CA24201
:100D540006D1684C2168684C246804940E4600E06F
:100D64000E463146440001910292E1B21046FFF76B
:100D740075FD029A019920B91046FFF7D3FD0020B2
:100D8400A5E000273B46069CA34216D2059CE41826
:100D94002478019202910393E1B21046FFF75EFDBD
:100DA400039B0299019A20B91046FFF7BBFD00206E
:100DB4008DE05C1C27463B46E5E7079C012C48D1A7
:100DC4000B461046C41C2578C5F3400464B141B1F8
:100DD40023B90420049CA047012078E05A1E14463D
:100DE40000E01C462346EDE7861C0025347865F3B5
:100DF400451434700A46C41C2578C5F340045CB914
:100E040039B122B90420049CA04701205FE0531E9D
:100E140000E013461A46EEE7841D2578C5F3001456
:100E24002CB1861D0125347865F304143470841DB7
:100E34002578C5F380142CB1861D0125347865F31B
:100E440086143470C61C0125347865F3410434706B
:100E54002AE0961C0125347865F3820434700B462D
:100E64001046C41C2578C5F3400464B941B123B9C4
:100E74000420049CA047012029E05A1E144600E0E7
:100E84001C462346EDE7841D2578C5F300142CB1D8
:100E9400861D0125347865F304143470C61C0125BD
:100EA400347865F3410434700A46C41C2578C5F3CC
:100EB40040045CB139B122B90420049CA04701204C
:100EC40005E0531E00E013461A46EEE70020DDF865
:100ED40000E007B0704700BF006006400000FF1F3D
:100EE4003000FF1F007006400400FF1F3400FF1F86
:0C0EF40000600E400800FF1F3800FF1FC8
:1008600082B0CDF800E04FF00003264A904205D157
:10087000254A1568254A1268019215E0244A9042DB
:1008800006D1244A1368244A126801921D460BE0DF
:10089000224A904206D1224A1368224A12680192E3
:1008A0001A4600E01A461546841C0123227863F399
:1008B00004122270021D11702C462946C21C1378A6
:1008C000C3F340025AB949B124B90420019CA0479E
:1008D000012012E0621E13461C46FFE7EEE7C41C2F
:1008E0000123227863F341022270C21C1378C3F300
:1008F000000282F00102D2B2D0B2DDF800E002B014
:10090000704700BF006006400000FF1F3000FF1F5F
:10091000007006400400FF1F3400FF1F00600E40FF
:080920000800FF1F3800FF1F53
:1009280084B0CDF800E04FF000023549884205D187
:1009380034490C6834490968039115E03349884201
:1009480006D133490A6833490968039114460BE014
:100958003149884206D131490A6831490968039109
:10096800114600E011460C46831C0022197862F3F8
:1009780045111970831C0022197862F3041119704B
:1009880001940290FFF7C2FE0298019C2346C11C05
:100998000A78C2F3400151B944B123B90620039C37
:1009A800A047012027E05A1E1346FFE7EFE7811D05
:1009B8000A78C2F3801129B1831D0122197862F3E4
:1009C80086111970C31C0122197862F3410119704C
:1009D8002346C11C0A78C2F3400159B14CB123B96E
:1009E8000620039CA047012005E0591E0A4613462D
:1009F800FFE7EEE70020DDF800E004B0704700BF35
:100A0800006006400000FF1F3000FF1F0070064016
:100A18000400FF1F3400FF1F00600E400800FF1F86
:040A28003800FF1F74
:1012B80081B0CDF800E008B413460A46C1B204482C
:1012C800FFF724FD01B0DDF800E001B0704700BF72
:0412D800007006405C
:1012DC0081B0CDF800E008B413460A46C1B2044808
:1012EC00FFF712FD01B0DDF800E001B0704700BF60
:0412FC0000600E4040
:101E640081B0CDF800E0EE20FFF7A0FF40F6FE576A
:101E7400C0F2277700BF00BF7F1EFDD100BF00BFA7
:101E840000BFDE20FFF792FF40F6FE57C0F227772F
:101E940000BF00BF7F1EFDD100BF00BF00BFCF2029
:101EA400FFF784FF40F6FE57C0F2277700BF00BF5C
:101EB4007F1EFDD100BF00BF00BFBF20FFF776FF2C
:101EC40040F6FE57C0F2277700BF00BF7F1EFDD14A
:101ED40000BF00BF00BFCF20FFF768FF40F6FE57EA
:101EE400C0F2277700BF00BF7F1EFDD100BF00BF37
:101EF40000BFDE20FFF75AFF40F6FE57C0F22777F7
:101F040000BF00BF7F1EFDD100BF00BF00BFDDF8D2
:061F140000E001B070477F
:101F1C0081B01CF8019B0BF8019BBBEB0A0FF8D1AD
:041F2C0001B0704749
:10205C0090B072B6974801909748029097480390B9
:10206C009748049097480590974806909748079092
:10207C00974808909748099097480A9097480B9072
:10208C0097480C90974998480D9098480E900D9849
:10209C0000F007000F9001F0010050B94CF22050F5
:1020AC00934908804DF62810088040F2D2119148CF
:1020BC0001809148007800F0010050B18F48007801
:1020CC0000F0080020B18D49087840F00800087035
:1020DC0021E08B48006840F0005189480160894834
:1020EC00006800F48070B0B9864801686FF47050D5
:1020FC0001EA000040F440718248016081480068A8
:10210C0040F480717F4801607E4801686FF4007074
:10211C0001407C480160AA217B4801700D9800F0B9
:10212C00100060B9794801786FF060000140774881
:10213C00017077480078012800D0FAE71CE00D9870
:10214C0000F01000C0B10E997248814208D960218C
:10215C006E4801706E480078802800D0FAE70BE0DA
:10216C006A4801786FF06000014068480170684867
:10217C000078012800D0FAE70499674801606748A5
:10218C0001686FF440200140029800F440200143A4
:10219C0062480160624801686FF440300140039866
:1021AC0000F4403001435E4801600F9830B10F9845
:1021BC00012803D00F98022800D061E0019800F0AC
:1021CC00800050B9089800F0400028B10B9800F03E
:1021DC000300002800D100E015E05248006840F4EC
:1021EC0000715048016050480168504801404E4809
:1021FC000160069800F0040028B14D4801684B4876
:10220C0001404B4801600A994A48017005994A48B7
:10221C000170059800F0040038B14848007800F0CF
:10222C001000002800D1F8E705E04448007800F0E1
:10223C00100000B1F9E74248007800F0BF01C9B2C4
:10224C00069800F0FD0001433D480170079800F02E
:10225C00E0013C48007800F01F0001433948017050
:10226C000199394801700B99384801700F98022870
:10227C0005D13348007840F0020131480170B8E0D4
:10228C00019800F0800020B90B9800F0030000B119
:10229C0065E02448006840F400712248016022483F
:1022AC0001682248014020480160069800F00400B3
:1022BC0000F04EB80000000000000C00000001000F
:1022CC0000001401220000002400000000000000A7
:1022DC0002000000460000000000000000000000AA
:1022EC00000000000000000007000000C0D4010046
:1022FC000E2005400020054000F0074002D00740AA
:10230C003C80044010D0034000E0074001E007404F
:10231C0003E0074080380100448004400070044012
:10232C00048004403880044048900440FFF8FFFECD
:10233C004C900440084006400040064006400640D1
:10234C000140064003400640005006400C40064049
:10235C0028B17A4801687A480140784801600A99A6
:10236C00784801707848007800F0BF01C9B206982F
:10237C0000F0FD000143744801700199734801702D
:10238C000B99734801700F98072805D1059840F0F8
:10239C0080017048017002E005996E480170069842
:1023AC0000F0040048B10B9800F0030028B96A480B
:1023BC00007800F0020000B9F9E7059800F004007D
:1023CC0038B16548007800F01000002800D1F8E71B
:1023DC0005E06148007800F0100000B1F9E70798BB
:1023EC0000F0E0015D48007800F01F0001435B48FD
:1023FC000170089800F0BF0159480170099800F06D
:10240C00BF0158480170089800F0400028B15448AA
:10241C00007840F04001524801700F98052806D111
:10242C004948007840F00201474801701BE00F98C2
:10243C00062803D00F98072800D014E049480078EC
:10244C0040F04001474801704348007800F04000DC
:10245C0000B9F9E70F98072805D13E48007800F03D
:10246C003F013C4801700F9818B10F98032800D019
:10247C002CE03948007800F00C0000B1F9E73A483C
:10248C00006840F00101384801604FF00001374806
:10249C0001604FF08001364801604FF0050135486E
:1024AC0001604FF00101324801603148006800F0D2
:1024BC00800000B9F9E700212D4801602A48016825
:1024CC006FF001000140284801602AE00F980128B4
:1024DC0003D00F98022800D007E01F48007800F0C6
:1024EC000C00042800D0F8E71BE00F98042806D055
:1024FC000F98062803D00F98052800D007E016483F
:10250C00007800F00C00082800D0F8E709E00F98DC
:10251C00072806D11048007800F00C000C2800D0D9
:10252C00F8E7154801686FF00F0001400C9800F0B7
:10253C000F0001431048016010B070474C900440EC
:10254C00FFF8FFFE084006400140064000500640E0
:10255C000C40064000400640064006400340064042
:10256C000440064005400640388004400800044002
:0C257C00000004400400044048800440BB
:1020240081B002490248016001B07047C0D4010088
:042034002C00FF1F5E
:081FF00081B0FEE701B070476B
:101FF80081B072B60849086840F47000086000BFF4
:1020080000BF00BF00BFF1EE100A40F44000E1EE4F
:0C201800100A62B601B0704788ED00E0CD
:1029440000B5DFF814B0DFF814A0DFF814C0FFF707
:10295400E3FA00BD704700BF0000FF1F0C00FF1F1B
:042964003429000012
:1029C40000B5DFF810B0DFF810A0FFF7AFFA00BDD4
:0C29D400704700BF0000FF1F5800FF1FED
:100400000000000000000000FFFFFFFF02FDFFFFF3
:102588000000000014000000010000001600000018
:102598000200000018000000030000001A000000FC
:1025A800040000001C000000050000001E000000E0
:1025B80009000000200000000600000022000000C2
:1025C8000A000000240000000700000028000000A6
:1025D8000C0000002C00000010000000300000007B
:1025E8001100000038000000120000004000000048
:1025F8000F00000044000000130000004800000025
:1026080014000000500000001500000058000000F1
:1026180019000000600000001600000068000000BB
:102628001A00000070000000170000008000000081
:102638001C000000900000001D000000A000000029
:102648001E000000C000000022000000E0000000A2
:102658001F000000F000000023000000000100003F
:1026680024000000200100002500000040010000B7
:1026780026000000800100002A000000C0010000C0
:1026880027000000E00100002B000000000200000D
:102698002C000000400200002D0000008002000015
:1026A8002E0000000003000032000000800300003C
:1026B8002F000000C00300003300000000040000E9
:1026C8003400000080040000350000000005000010
:1026D80036000000000600003A0000000007000075
:1026E80037000000800700003B00000000080000E1
:1026F8003C000000000900003D000000000A000046
:102708003E000000000C00003F000000000F000029
:102718006303000062030000FFFFFFFF00000000EA
:1027280000000000000000000000000000000000A1
:102738000000000000000000000000000000000091
:10274800000000000000080000000800FFFFFFFF75
:102758000000000000000000000000000000000071
:102768000000000000000000000000000000000061
:0C27780000000000000000000000000055
:102784005103000050030000FFFFFFFF00000000A2
:102794000000000000000000000000000000000035
:1027A4000000000000000000000000000000000025
:1027B400000000000000080000000800FFFFFFFF09
:1027C4000000000000000000000000000000000005
:1027D40000000000000000000000000000000000F5
:0C27E400000000000000000000000000E9
:1027F0006802000069020000FFFFFFFF0000000008
:1028000000000000000000000000000000000000C8
:1028100000000000000000000000000000000000B8
:10282000000000000000080000000800FFFFFFFF9C
:102830000000000000000000000000000000000098
:102840000000000000000000000000000000000088
:0C2850000000000000000000000000007C
:10285C003103000030030000FFFFFFFF0000000009
:10286C00000000000000000000000000000000005C
:10287C00000000000000000000000000000000004C
:10288C00000000000000080000000800FFFFFFFF30
:10289C00000000000000000000000000000000002C
:1028AC00000000000000000000000000000000001C
:0C28BC0000000000000000000000000010
:1028C800FD160000FD180000211900002D19000058
:1028D8000919000015190000191C0000B51C00009A
:1028E800C11C0000A91C0000911C00009D1C0000D8
:1028F800FFFFFFFFFFFFFFFFFFFFFFFFFFFFFFFFE0
:10290800FFFFFFFFFFFFFFFFFFFFFFFFFFFFFFFFCF
:10291800FFFFFFFFFFFFFFFFFFFFFFFFFFFFFFFFBF
:0C2928000511000061120000FFFFFFFF1E
:04293400000000009F
:04293800000000009B
:04293C000000000097
:04294000A08601006C
:00000001FF
