:1000000031EF0CF00000000000EF00F000000000F5
:0A0010000000000000000000F3D71C
:0E001C00000190B102D08B9801D08B881200A9
:0E002A00000190B102D08B9601D08B8612009F
:0E003800000190B102D08D9601D08D8612008D
:0E004600000190B102D0899401D0898412008B
:0E005400000190B102D08B9C01D08B8C120069
:0E006200000190B102D08B9401D08B8412006B
:0E007000000190B102D08B9A01D08B8A120051
:0E007E00000190B102D08B9E01D08B8E12003B
:0E008C00000190B102D08A9201D08A82120047
:0E009A00000190B102D08D9401D08D8412002F
:0E00A800000190B102D08F9201D08F82120021
:0E00B600000190B102D08F9401D08F8412000F
:0E00C400000190B102D08B9801D08B88120001
:0E00D200000190B102D08B9601D08B861200F7
:0E00E000000190B102D08A9401D08A841200EF
:0E00EE00000190B102D08B9801D08B881200D7
:0E00FC00000190B102D08B9601D08B861200CD
:0E010A00000190B102D08F9001D08F801200C2
:0E011800000190B102D08B9A01D08B8A1200A8
:0E012600000190B102D08B9801D08B8812009E
:0E013400000190B102D08B9601D08B86120094
:0E014200000190B102D08B9201D08B8212008E
:0E015000000190B102D08B9A01D08B8A120070
:0E015E00000190B102D08D9001D08D80120072
:10016C000F0121B302D00000FBD790C01CFF12007E
:0E017C00ACB202D00000FCD790C0ADFF120064
:0E018A00000190B102D08B9001D08B8012004A
:0E019800000190B102D0899001D08980120040
:0E01A600000190B102D08A9001D08A80120030
:0E01B400000190B102D08D9201D08D82120018
:0E01C200000190B102D0899801D08988120006
:0E01D000000190B102D08B9801D08B881200F4
:0E01DE00000190B102D08B9601D08B861200EA
:0E01EC00000190B102D0899201D089821200E8
:0E01FA00000190B102D08B9C01D08B8C1200C2
:0E020800000190B102D08B9E01D08B8E1200AF
:0E021600000190B102D08B9801D08B881200AD
:0E022400000190B102D08B9601D08B861200A3
:10023200F250026EF29E0500FF6A0150FE6E0050FF
:08024200FD6E02BEF28E1200F7
:10024A00C7B409D01F0EC514016E0150000A03E19C
:0A025A00010E006E01D0006A1200D0
:1002640068B409D01F0E6614016E0150000A03E140
:0A027400010E006E01D0006A1200B6
:0A027E00000EACB2010E006E12007B
:0A028800000E9EBA010E006E120077
:100292001DCF01F00F0122A302D02299228901C0B1
:0402A20000F0120056
:0C02A600000E0F0121B3010E006E1200CB
:0A02B200000EA4BA010E006E120047
:1002BC0015C08CF016C08DF017C08EF018C08FF0E2
:1002CC0000018A6B8B6B8B51120802E18A518E08EC
:1002DC0008E3C2DF005201E004D000018A4B8B2BF3
:1002EC00F2D70001120E8B5D02E18F0E8A5D03E3E3
:1002FC007B0E006E24D0668066A020D015501610A0
:10030C00171018101AE08C518D118E118F110EE1EF
:10031C0027C0E1FF28C0E2FF050EE66E25C000F005
:10032C0026C001F080DF010E006E09D0010E000125
:10033C008C5F000E8D5B8E5B8F5BDED7006A1200CC
:0A034C00000E82B8010E006E1200D0
:0A035600000E82B6010E006E1200C8
:10036000AECF01F0ABA202D0AB98AB8801C000F0D9
:02037000120079
:0A037200000E82B8010E006E1200AA
:0A037C00000E82B2010E006E1200A6
:0A038600000E82BA010E006E120094
:0A039000000E81B0010E006E120095
:0A039A00000E82BC010E006E12007E
:0A03A400000E82BE010E006E120072
:0A03AE00000E82B0010E006E120076
:0A03B800000E80B0010E006E12006E
:0A03C200000E84B0010E006E120060
:0A03CC00000E82B8010E006E120050
:0A03D600000E82B6010E006E120048
:0A03E000000E86B4010E006E12003C
:0A03EA00000E81B4010E006E120037
:1003F40019C08CF01AC08DF01BC08EF01CC08FF099
:100404009E96C5869EB61FD019501A101B101C103C
:1004140019E000018C518D118E118F110CE173C004
:10042400E1FF74C0E2FF030EE66E71C000F072C01B
:1004340001F0FDDE08D0010E00018C5F000E8D5B23
:100444008E5B8F5BDFD70001C9CF8BF08A51000A26
:1004540002E1C58A01D0C59A9E96C58819C08CF060
:100464001AC08DF01BC08EF01CC08FF09EB61FD03A
:1004740019501A101B101C1019E000018C518D1119
:100484008E118F110CE173C0E1FF74C0E2FF030E03
:10049400E66E71C000F072C001F0C9DE08D0010E32
:1004A40000018C5F000E8D5B8E5B8F5BDFD78BC092
:0404B40000F0120042
:0A04B800000E82B8010E006E120063
:0A04C200000E82BC010E006E120055
:0A04CC00000E82BE010E006E120049
:0A04D600000E82B6010E006E120047
:0A04E000000E82BA010E006E120039
:1004EA0015C08AF016C08BF017C08CF018C08DF0BA
:1004FA00668266A21FD0155016101710181019E040
:10050A0000018A518B118C118D110CE127C0E1FF7A
:10051A0028C0E2FF060EE66E25C000F026C001F0F4
:10052A0083DE08D0010E00018A5F000E8B5B8C5BB4
:06053A008D5BDFD712000B
:10054000A19A8AC06AFF15C08BF016C08CF017C044
:100550008DF018C08EF068A421D015501610171019
:1005600018101BE000018B518C118D118E110EE1C2
:1005700027C0E1FF28C0E2FF040EE66E25C000F0B0
:1005800026C001F056DE010E006E3AD0010E0001C9
:100590008B5F000E8C5B8D5B8E5BDDD715C08BF0A7
:1005A00016C08CF017C08DF018C08EF0A1BA21D003
:1005B00015501610171018101BE000018B518C11EC
:1005C0008D118E110EE127C0E1FF28C0E2FF040E5D
:1005D000E66E25C000F026C001F02BDE010E006E95
:1005E0000FD0010E00018B5F000E8C5B8D5B8E5B6C
:1005F000DDD766BC02D0006A03D06684020E006EAE
:020600001200E6
:1006020019C08CF01AC08DF01BC08EF01CC08FF088
:1006120000018A6B8B6B8B51120802E18A518E08A2
:1006220008E312DE005201E004D000018A4B8B2B5A
:10063200F2D70001120E8B5D02E18F0E8A5D03E399
:100642007B0E006E24D0C580C5A020D019501A1090
:100652001B101C101AE08C518D118E118F110EE19E
:1006620073C0E1FF74C0E2FF050EE66E71C000F0D8
:1006720072C001F0DDDD010E006E09D0010E000135
:100682008C5F000E8D5B8E5B8F5BDED7006A120083
:040692006684120068
:0A069600000E86B2010E006E120085
:1006A0009E968AC0C9FF19C08BF01AC08CF01BC07F
:1006B0008DF01CC08EF0C7A421D019501A101B1049
:1006C0001C101BE000018B518C118D118E110EE15D
:1006D00073C0E1FF74C0E2FF040EE66E71C000F06B
:1006E00072C001F0A6DD010E006E3AD0010E0001CD
:1006F0008B5F000E8C5B8D5B8E5BDDD719C08BF042
:100700001AC08CF01BC08DF01CC08EF09EB621D09C
:1007100019501A101B101C101BE000018B518C117A
:100720008D118E110EE173C0E1FF74C0E2FF040E63
:10073000E66E71C000F072C001F07BDD010E006E4C
:100740000FD0010E00018B5F000E8C5B8D5B8E5B0A
:10075000DDD7C5BC02D0006A03D0C584020E006E8E
:02076000120085
:1007620015C08CF016C08DF017C08EF018C08FF037
:10077200A19A6686A1BA1FD015501610171018102C
:1007820019E000018C518D118E118F110CE127C0DF
:10079200E1FF28C0E2FF030EE66E25C000F026C08E
:1007A20001F046DD08D0010E00018C5F000E8D5B6A
:1007B2008E5B8F5BDFD700016ACF8BF08A51000A14
:1007C20002E1668A01D0669AA19A668815C08CF009
:1007D20016C08DF017C08EF018C08FF0A1BA1FD0CE
:1007E200155016101710181019E000018C518D11B8
:1007F2008E118F110CE127C0E1FF28C0E2FF030E2A
:10080200E66E25C000F026C001F012DD08D0010E10
:1008120000018C5F000E8D5B8E5B8F5BDFD78BC020
:0408220000F01200D0
:04082600C584120073
:0A082A00000E82B6010E006E1200EF
:0A083400000E82B4010E006E1200E7
:0A083E00000E84B6010E006E1200D9
:0A084800000E80B4010E006E1200D5
:0A085200000E80B8010E006E1200C7
:0A085C00000E80B2010E006E1200C3
:0A086600000E82BA010E006E1200AF
:0A087000000E84B2010E006E1200AB
:0A087A00000E82B8010E006E12009D
:0A088400000E81B2010E006E12009A
:0A088E00000E82B6010E006E12008B
:0A089800000E84B4010E006E120081
:1008A20019C08AF01AC08BF01BC08CF01CC08DF0EE
:1008B200C582C5A21FD019501A101B101C1019E0B6
:1008C20000018A518B118C118D110CE173C0E1FF73
:1008D20074C0E2FF060EE66E71C000F072C001F055
:1008E200A7DC08D0010E00018A5F000E8B5B8C5BD7
:0608F2008D5BDFD7120050
:0A08F800000E82B6010E006E120021
:0A090200000E82B8010E006E120014
:0A090C00000E86B0010E006E12000E
:100916006C0E556E010E566E900E576E000E586E8A
:10092600920E516E020E526E000E536E000E546EF3
:10093600B20E0001656F020E666F000E676F000E45
:10094600686FA60E616F020E626F000E636F000E77
:10095600646F0F01218B900E226F98849892A4AA3F
:0A09660003D01DCF00F0FBD71200F4
:100970004A0E216E020E226E000E236E000E246EB1
:10098000020E1D6E060E1E6E000E1F6E000E206EF5
:10099000A20E316E080E326E000E336E000E346EF3
:1009A000F40E2D6E030E2E6E8A0E2F6E000E306E1C
:1009B000A00E296E060E2A6E8A0E2B6E000E2C6E6D
:1009C000260E4D6E080E4E6E000E4F6E000E506ECF
:1009D000949894968B988B9694889486C79EC79C7F
:0609E000380EC66E120085
:1009E6007C0E556E010E566E900E576E000E586EAA
:1009F600600E516E030E526E000E536E000E546E54
:100A0600880E0001656F020E666F000E676F000E9E
:100A1600686F7E0E616F020E626F000E636F000ECE
:100A2600646FAC8A900EAB6E948E949C9EAA03D093
:080A3600AECF00F0FBD7120067
:100A3E0021D0CF0EAF6EAC94CFDF6BD0670EAF6E02
:100A4E00AC94CADF66D0CF0EAF6EAC84C5DF61D07A
:100A5E00670EAF6EAC84C0DF5CD0440EAF6EAC845C
:100A6E00BBDF57D0220EAF6EAC84B6DF52D0060E6F
:100A7E00006E58D00001000E006E7F1908E1005084
:100A8E007E1905E1120E7D1902E17C51C00AD1E0FA
:100A9E00000E006E7F1908E100507E1905E1250E4B
:100AAE007D1902E17C51800AC9E0000E006E7F19AB
:100ABE0008E100507E1905E14B0E7D1902E17C51D3
:100ACE00000AC1E0000E006E7F1908E100507E1989
:100ADE0005E1960E7D1902E17C51000AB9E0000E87
:100AEE00006E7F1908E100507E1905E1E10E7D19B7
:100AFE0002E17C51000AB1E07F51000A08E17E510B
:100B0E00010A05E17D51C20A02E17C51000AAAE008
:100B1E00AED77C0E356E010E366E900E376E000E11
:060B2E00386E006A12009F
:100B340057D000017DB102D0929001D0928076D03E
:100B440000017DB102D0949001D094806FD0000157
:100B54007DB102D0969001D0968068D000017DB11D
:100B640002D0949601D0948661D000017DB102D068
:100B7400949801D094885AD000017DB102D0949AFF
:100B840001D0948A53D000017DB102D0949201D057
:100B940094824CD000017DB102D0939001D0938017
:100BA40045D000017DB102D0949E01D0948E3ED0F8
:100BB40000017DB102D0949C01D0948C37D0000107
:100BC4007DB102D0949601D0948630D000017DB1DD
:100BD40002D0949801D0948829D0010E006E28D0B8
:100BE40000017C51000AA5E07C51010AA9E07C5176
:100BF400020AADE07C51030AB1E07C51040AB5E07D
:100C04007C51050AB9E07C51060ABDE07C51070A13
:100C1400C1E07C51080AC5E07C51090AC9E07C5155
:100C24000A0ACDE07C510B0AD1E0D7D7000E006E42
:020C34001200AC
:100C36007CC07FF07DC080F07EC081F00BD0A00E1E
:100C4600C86E93DE44D0280EC86E8FDE40D0040EE8
:100C5600006E3FD07FC0F6FF80C0F7FF81C0F8FF6F
:100C66000900F5CF01F00900F5CF02F00900F5CF34
:100C760003F00900F5CF04F00450000A08E1035020
:100C8600010A05E10250860A02E10150A00AD7E0F6
:100C96007FC0F6FF80C0F7FF81C0F8FF0900F5CFDF
:100CA60001F00900F5CF02F00900F5CF03F00900C5
:100CB600F5CF04F00450000A08E10350060A05E1E6
:100CC60002501A0A02E10150800ABDE0C0D7000EA8
:040CD600006E12009A
:100CDA007CC07FF07DC080F07EC081F00BD0A00E7A
:100CEA00C86E41DE44D0280EC86E3DDE40D0040EE8
:100CFA00006E3FD07FC0F6FF80C0F7FF81C0F8FFCB
:100D0A000900F5CF01F00900F5CF02F00900F5CF8F
:100D1A0003F00900F5CF04F00450000A08E103507B
:100D2A00010A05E10250860A02E10150A00AD7E051
:100D3A007FC0F6FF80C0F7FF81C0F8FF0900F5CF3A
:100D4A0001F00900F5CF02F00900F5CF03F0090020
:100D5A00F5CF04F00450000A08E10350060A05E141
:100D6A0002501A0A02E10150800ABDE0C0D7000E03
:040D7A00006E1200F5
:100D7E0021D0CF0EAF6EAC942FDE6BD0670EAF6E60
:100D8E00AC942ADE66D0CF0EAF6EAC8425DE61D079
:100D9E00670EAF6EAC8420DE5CD0440EAF6EAC84BA
:100DAE001BDE57D0220EAF6EAC8416DE52D0060E6E
:100DBE00006E58D00001000E006E7F1908E1005041
:100DCE007E1905E1120E7D1902E17C51C00AD1E0B7
:100DDE00000E006E7F1908E100507E1905E1250E08
:100DEE007D1902E17C51800AC9E0000E006E7F1968
:100DFE0008E100507E1905E14B0E7D1902E17C5190
:100E0E00000AC1E0000E006E7F1908E100507E1945
:100E1E0005E1960E7D1902E17C51000AB9E0000E43
:100E2E00006E7F1908E100507E1905E1E10E7D1973
:100E3E0002E17C51000AB1E07F51000A08E17E51C7
:100E4E00010A05E17D51C20A02E17C51000AAAE0C5
:100E5E00AED77C0E356E010E366E900E376E000ECE
:060E6E00386E006A12005C
:100E740021D0CF0EAF6EAC94B4DD6BD0670EAF6EE5
:100E8400AC94AFDD66D0CF0EAF6EAC84AADD61D07A
:100E9400670EAF6EAC84A5DD5CD0440EAF6EAC843F
:100EA400A0DD57D0220EAF6EAC849BDD52D0060E6F
:100EB400006E58D00001000E006E7F1908E100504A
:100EC4007E1905E1120E7D1902E17C51C00AD1E0C0
:100ED400000E006E7F1908E100507E1905E1250E11
:100EE4007D1902E17C51800AC9E0000E006E7F1971
:100EF40008E100507E1905E14B0E7D1902E17C5199
:100F0400000AC1E0000E006E7F1908E100507E194E
:100F140005E1960E7D1902E17C51000AB9E0000E4C
:100F2400006E7F1908E100507E1905E1E10E7D197C
:100F340002E17C51000AB1E07F51000A08E17E51D0
:100F4400010A05E17D51C20A02E17C51000AAAE0CE
:100F5400AED77C0E356E010E366E900E376E000ED7
:060F6400386E006A120065
:100F6A0038D00F0120870D0E1F6F040E1E6F2185CA
:100F7A00CDDC7ED00F012087060E1F6F820E1E6FFA
:100F8A002185C4DC75D00F012087030E1F6F400E28
:100F9A001E6F2185BBDC6CD00F012087010E1F6FED
:100FAA00A00E1E6F2185B2DC63D00F012087010ECF
:100FBA001F6F150E1E6F2185A9DC5AD00F012087DD
:100FCA001F6B8A0E1E6F2185A1DC52D0060E006EA1
:100FDA0058D0000E006E00017F1908E100507E19FA
:100FEA0005E1120E7D1902E17C51C00ABAE0000E39
:100FFA00006E7F1908E100507E1905E1250E7D1962
:10100A0002E17C51800AB6E0000E006E7F1908E109
:10101A0000507E1905E14B0E7D1902E17C51000A50
:10102A00B2E0000E006E7F1908E100507E1905E15A
:10103A00960E7D1902E17C51000AAEE0000E006EA8
:10104A007F1908E100507E1905E1E10E7D1902E1E0
:10105A007C51000AAAE07F51000A08E17E51010A88
:10106A0005E17D51C20A02E17C51000AA7E0AED730
:10107A006C0E356E010E366E900E376E000E386E9F
:04108A00006A1200E6
:10108E0057D000017DB102D0929201D0928276D0DB
:10109E0000017DB102D0929801D092886FD00001EC
:1010AE007DB102D0969201D0968268D000017DB1BA
:1010BE0002D0949601D0948661D000017DB102D009
:1010CE00949801D094885AD000017DB102D0949AA0
:1010DE0001D0948A53D000017DB102D0949401D0F6
:1010EE0094844CD000017DB102D0939201D09382B2
:1010FE0045D000017DB102D0949E01D0948E3ED099
:10110E0000017DB102D0949C01D0948C37D00001A7
:10111E007DB102D0949601D0948630D000017DB17D
:10112E0002D0949801D0948829D0010E006E28D058
:10113E0000017C51000AA5E07C51010AA9E07C5116
:10114E00020AADE07C51030AB1E07C51040AB5E01D
:10115E007C51050AB9E07C51060ABDE07C51070AB4
:10116E00C1E07C51080AC5E07C51090AC9E07C51F6
:10117E000A0ACDE07C510B0AD1E0D7D7000E006EE3
:02118E0012004D
:1011900057D000017DB102D0929401D0928476D0D4
:1011A00000017DB102D0969601D096866FD00001E5
:1011B0007DB102D0969401D0968468D000017DB1B3
:1011C00002D0949601D0948661D000017DB102D006
:1011D000949801D094885AD000017DB102D0949A9D
:1011E00001D0948A53D000017DB102D0989001D0F3
:1011F00098804CD000017DB102D0939401D09384AB
:1012000045D000017DB102D0989401D098843ED0A1
:1012100000017DB102D0989201D0988237D00001B0
:101220007DB102D0949601D0948630D000017DB17A
:1012300002D0949801D0948829D0010E006E28D055
:1012400000017C51000AA5E07C51010AA9E07C5113
:10125000020AADE07C51030AB1E07C51040AB5E01A
:101260007C51050AB9E07C51060ABDE07C51070AB1
:10127000C1E07C51080AC5E07C51090AC9E07C51F3
:101280000A0ACDE07C510B0AD1E0D7D7000E006EE0
:0212900012004A
:101292000001846B856B7DC082F07EC083F07CC0D0
:1012A20000F0003600906BC0E1FF6CC0E2FF00C0AE
:1012B200E6FF69C000F06AC001F019EC01F00050CD
:1012C20000018413000E85137FC000F080C001F07E
:1012D200010E7F5F000E805B0050011018E06BC0B2
:1012E200E1FF6CC0E2FF82C0E9FF83C0EAFFEECFFC
:1012F200E6FF69C000F06AC001F019EC01F000508D
:1013020000018413000E8513824B832BDDD781519C
:10131200000A06E141C000F042C001F019EC01F000
:1013220000018151010A06E145C000F046C001F00A
:0E13320019EC01F084C000F085C001F012003B
:10134000090E0B6E1E0E0C6EE40E0D6E0D2EFED7EA
:0C1350000C2EFCD70B2EFAD70000120068
:10135C0000017C6B7D6B45C000F046C001F019ECC0
:10136C0001F000C07CF0000E00017D6F7CC000F02D
:06137C007DC001F012002B
:10138200300E00017C25006E000E7D21016E000EE4
:101392007E21026E040E0024F66E000E0120F76E0E
:1013A200000E0220F86E0900F5CF49F00900F5CFD2
:1013B2004AF00900F5CF4BF00900F5CF4CF0180EBA
:1013C2000024F66E000E0120F76E000E0220F86E69
:1013D2000900F5CF3DF00900F5CF3EF00900F5CF49
:1013E2003FF00900F5CF40F07CC0F6FF7DC0F7FF6B
:1013F2007EC0F8FF0900F5CF39F00900F5CF3AF0C9
:0E1402000900F5CF3BF00900F5CF3CF01200D9
:101410007CC0F6FF7DC0F7FF7EC0F8FF0900F5CF66
:1014200045F00900F5CF46F00900F5CF47F0090077
:10143000F5CF48F0040E00017C25F66E000E7D21EC
:10144000F76E000E7E21F86E0900F5CF41F009001D
:10145000F5CF42F00900F5CF43F00900F5CF44F095
:10146000080E7C25F66E000E7D21F76E000E7E21A3
:10147000F86E0900F5CF6DF00900F5CF6EF00900A8
:10148000F5CF6FF00900F5CF70F00C0E7C25F66EED
:10149000000E7D21F76E000E7E21F86E0900F5CF5B
:1014A00069F00900F5CF6AF00900F5CF6BF009008B
:1014B000F5CF6CF0100E7C25F66E000E7D21F76ED8
:1014C000000E7E21F86E0900F5CF59F00900F5CF26
:1014D0005AF00900F5CF5BF00900F5CF5CF012007F
:1014E0007CC07FF07DC080F07EC081F00DD0A00E6A
:1014F000C86EB8EC04F045D0280EC86EB8EC04F005
:1015000040D0040E006E3FD07FC0F6FF80C0F7FFD2
:1015100081C0F8FF0900F5CF01F00900F5CF02F016
:101520000900F5CF03F00900F5CF04F00450000ADC
:1015300008E10350010A05E10250860A02E1015068
:10154000A00AD5E07FC0F6FF80C0F7FF81C0F8FF9A
:101550000900F5CF01F00900F5CF02F00900F5CF41
:1015600003F00900F5CF04F00450000A08E103502D
:10157000060A05E102501A0A02E10150800ABCE0A5
:08158000C0D7000E006E12003E
:101588001DD076C07CF077C07DF078C07EF0A4DFF7
:1015980020D076C07CF077C07DF078C07EF06DEC0E
:1015A80006F017D076C07CF077C07DF078C07EF06A
:1015B8001BEC06F00ED0010E006E0BD00001755129
:1015C800000ADFE07551010AE4E07551020AEAE019
:0415D800F2D7120034
:1015DC00F90E5F6E800E5E5C04E2800E0001606F9F
:1015EC0002D05EC060F0B4DE5DC07CF05F0E7D6F3B
:1015FC00000E7E6F020E7F6F000E806F816B43DEDC
:04160C0099DE120051
:1016100016D076C07CF077C07DF09AEC05F01AD039
:1016200076C07CF077C07DF032DD14D076C07CF0DF
:1016300077C07DF0ADDD0ED0010E006E0BD0000145
:101640007551000AE6E07551010AEAE07551020A97
:06165000EDE0F2D71200EC
:101656003BC0E1FF3CC0E2FF5EC0E6FF39C000F0E0
:0A1666003AC001F019EC01F0120087
:101670002ED076C07CF077C07DF078C07EF079C047
:101680007FF0BFEC06F031D076C07CF077C07DF003
:1016900078C07EF079C07FF03AEC07F026D076C0B3
:1016A0007CF077C07DF078C07EF079C07FF05DDCA3
:1016B0001CD076C07CF077C07DF078C07EF079C019
:1016C0007FF01FEC05F011D0010E006E0ED000016E
:1016D0007551000ACEE07551010AD6E07551020A33
:0C16E000DEE07551100AE5E0EFD71200C3
:1016EC007BC05DF078C07CF079C07DF07AC07EF074
:1016FC0089DE75C07CF076C07DF077C07EF03BDE75
:02170C001200C9
:10170E000001756B766B776B7CDF0001756B010EDC
:10171E00766F010E776F75DF0001756BEC0E766FCD
:10172E00180E776F000E786F28DF100E0001756FA0
:10173E00800E766F250E776F000E786F796F91DFC2
:10174E00090E0B6E1E0E0C6EE40E0D6E0D2EFED7D8
:0C175E000C2EFCD70B2EFAD70000120056
:10176A00EE0E5E6E36DFF40E0B6E820E0C6E050EFA
:10177A000D6E0D2EFED70C2EFCD70B2EFAD7DE0ED1
:10178A005E6E27DFF40E0B6E820E0C6E050E0D6E6A
:10179A000D2EFED70C2EFCD70B2EFAD7CF0E5E6E6F
:1017AA0018DFF40E0B6E820E0C6E050E0D6E0D2EEA
:1017BA00FED70C2EFCD70B2EFAD7BF0E5E6E09DFB2
:1017CA00F40E0B6E820E0C6E050E0D6E0D2EFED7EC
:1017DA000C2EFCD70B2EFAD7CF0E5E6EFADEF40E65
:1017EA000B6E820E0C6E050E0D6E0D2EFED70C2E94
:1017FA00FCD70B2EFAD7DE0E5E6EEBDEF40E0B6E06
:10180A00820E0C6E050E0D6E0D2EFED70C2EFCD719
:06181A000B2EFAD71200AC
:101820000900F5CFE6FF0006FBE10106F9E1120031
:10183000700E0001756F180E766F000E776FD00E68
:10184000786F180E796F000E7A6F480E7B6F4EDF3F
:1018500077DD010E5E6EFFDEDE0E5E6EBFDE70DDDA
:02186000120074
:0E18620078EC0CF053DFE3DF7FDFFED7FFD71B
:1018F00010EE15F0080E006E010E016EE40EF66E8D
:0E190000180EF76E000EF86E10EC0CF01200D0
:10187000980190008A0190005E0190003401900070
:10188000260190005001900042019000A6019000B6
:1018900008029000FA0190002402900016029000C5
:1018A000B8030000AE030000C2030000D60300002E
:1018B000CC030000860300007C03000090030000BE
:1018C000A40300009A030000560300007203000006
:1018D0000206000026080000A2080000A0068A00F8
:0418E000F4038A0083
:0418E4000000000000
:0418E80000000000FC
:0418EC00A0860100D1
:020000040030CA
:0E00000015137F7CF98B91FFFFC0FFE0FF40DE
:00000001FF
